{
	"learnings/constructors.sol": {
		"constr": {
			"abi": [
				{
					"inputs": [
						{
							"internalType": "uint8",
							"name": "_val",
							"type": "uint8"
						}
					],
					"stateMutability": "nonpayable",
					"type": "constructor"
				},
				{
					"inputs": [],
					"name": "val",
					"outputs": [
						{
							"internalType": "uint8",
							"name": "",
							"type": "uint8"
						}
					],
					"stateMutability": "view",
					"type": "function"
				}
			],
			"devdoc": {
				"kind": "dev",
				"methods": {},
				"version": 1
			},
			"evm": {
				"assembly": "    /* \"learnings/constructors.sol\":58:216  contract constr {... */\n  mstore(0x40, 0x80)\n    /* \"learnings/constructors.sol\":99:101  10 */\n  0x0a\n    /* \"learnings/constructors.sol\":80:101  uint8 public val = 10 */\n  0x00\n  dup1\n  0x0100\n  exp\n  dup2\n  sload\n  dup2\n  0xff\n  mul\n  not\n  and\n  swap1\n  dup4\n  0xff\n  and\n  mul\n  or\n  swap1\n  sstore\n  pop\n    /* \"learnings/constructors.sol\":161:214  constructor (uint8 _val) {... */\n  callvalue\n  dup1\n  iszero\n  tag_1\n  jumpi\n  0x00\n  dup1\n  revert\ntag_1:\n  pop\n  mload(0x40)\n  sub(codesize, bytecodeSize)\n  dup1\n  bytecodeSize\n  dup4\n  codecopy\n  dup2\n  dup2\n  add\n  0x40\n  mstore\n  dup2\n  add\n  swap1\n  tag_2\n  swap2\n  swap1\n  tag_3\n  jump\t// in\ntag_2:\n    /* \"learnings/constructors.sol\":202:206  _val */\n  dup1\n    /* \"learnings/constructors.sol\":196:199  val */\n  0x00\n  dup1\n    /* \"learnings/constructors.sol\":196:206  val = _val */\n  0x0100\n  exp\n  dup2\n  sload\n  dup2\n  0xff\n  mul\n  not\n  and\n  swap1\n  dup4\n  0xff\n  and\n  mul\n  or\n  swap1\n  sstore\n  pop\n    /* \"learnings/constructors.sol\":161:214  constructor (uint8 _val) {... */\n  pop\n    /* \"learnings/constructors.sol\":58:216  contract constr {... */\n  jump(tag_6)\n    /* \"#utility.yul\":88:205   */\ntag_8:\n    /* \"#utility.yul\":197:198   */\n  0x00\n    /* \"#utility.yul\":194:195   */\n  dup1\n    /* \"#utility.yul\":187:199   */\n  revert\n    /* \"#utility.yul\":334:420   */\ntag_10:\n    /* \"#utility.yul\":369:376   */\n  0x00\n    /* \"#utility.yul\":409:413   */\n  0xff\n    /* \"#utility.yul\":402:407   */\n  dup3\n    /* \"#utility.yul\":398:414   */\n  and\n    /* \"#utility.yul\":387:414   */\n  swap1\n  pop\n    /* \"#utility.yul\":334:420   */\n  swap2\n  swap1\n  pop\n  jump\t// out\n    /* \"#utility.yul\":426:544   */\ntag_11:\n    /* \"#utility.yul\":497:519   */\n  tag_19\n    /* \"#utility.yul\":513:518   */\n  dup2\n    /* \"#utility.yul\":497:519   */\n  tag_10\n  jump\t// in\ntag_19:\n    /* \"#utility.yul\":490:495   */\n  dup2\n    /* \"#utility.yul\":487:520   */\n  eq\n    /* \"#utility.yul\":477:538   */\n  tag_20\n  jumpi\n    /* \"#utility.yul\":534:535   */\n  0x00\n    /* \"#utility.yul\":531:532   */\n  dup1\n    /* \"#utility.yul\":524:536   */\n  revert\n    /* \"#utility.yul\":477:538   */\ntag_20:\n    /* \"#utility.yul\":426:544   */\n  pop\n  jump\t// out\n    /* \"#utility.yul\":550:689   */\ntag_12:\n    /* \"#utility.yul\":605:610   */\n  0x00\n    /* \"#utility.yul\":636:642   */\n  dup2\n    /* \"#utility.yul\":630:643   */\n  mload\n    /* \"#utility.yul\":621:643   */\n  swap1\n  pop\n    /* \"#utility.yul\":652:683   */\n  tag_22\n    /* \"#utility.yul\":677:682   */\n  dup2\n    /* \"#utility.yul\":652:683   */\n  tag_11\n  jump\t// in\ntag_22:\n    /* \"#utility.yul\":550:689   */\n  swap3\n  swap2\n  pop\n  pop\n  jump\t// out\n    /* \"#utility.yul\":695:1042   */\ntag_3:\n    /* \"#utility.yul\":763:769   */\n  0x00\n    /* \"#utility.yul\":812:814   */\n  0x20\n    /* \"#utility.yul\":800:809   */\n  dup3\n    /* \"#utility.yul\":791:798   */\n  dup5\n    /* \"#utility.yul\":787:810   */\n  sub\n    /* \"#utility.yul\":783:815   */\n  slt\n    /* \"#utility.yul\":780:899   */\n  iszero\n  tag_24\n  jumpi\n    /* \"#utility.yul\":818:897   */\n  tag_25\n  tag_8\n  jump\t// in\ntag_25:\n    /* \"#utility.yul\":780:899   */\ntag_24:\n    /* \"#utility.yul\":938:939   */\n  0x00\n    /* \"#utility.yul\":963:1025   */\n  tag_26\n    /* \"#utility.yul\":1017:1024   */\n  dup5\n    /* \"#utility.yul\":1008:1014   */\n  dup3\n    /* \"#utility.yul\":997:1006   */\n  dup6\n    /* \"#utility.yul\":993:1015   */\n  add\n    /* \"#utility.yul\":963:1025   */\n  tag_12\n  jump\t// in\ntag_26:\n    /* \"#utility.yul\":953:1025   */\n  swap2\n  pop\n    /* \"#utility.yul\":909:1035   */\n  pop\n    /* \"#utility.yul\":695:1042   */\n  swap3\n  swap2\n  pop\n  pop\n  jump\t// out\n    /* \"learnings/constructors.sol\":58:216  contract constr {... */\ntag_6:\n  dataSize(sub_0)\n  dup1\n  dataOffset(sub_0)\n  0x00\n  codecopy\n  0x00\n  return\nstop\n\nsub_0: assembly {\n        /* \"learnings/constructors.sol\":58:216  contract constr {... */\n      mstore(0x40, 0x80)\n      callvalue\n      dup1\n      iszero\n      tag_1\n      jumpi\n      0x00\n      dup1\n      revert\n    tag_1:\n      pop\n      jumpi(tag_2, lt(calldatasize, 0x04))\n      shr(0xe0, calldataload(0x00))\n      dup1\n      0x3c6bb436\n      eq\n      tag_3\n      jumpi\n    tag_2:\n      0x00\n      dup1\n      revert\n        /* \"learnings/constructors.sol\":80:101  uint8 public val = 10 */\n    tag_3:\n      tag_4\n      tag_5\n      jump\t// in\n    tag_4:\n      mload(0x40)\n      tag_6\n      swap2\n      swap1\n      tag_7\n      jump\t// in\n    tag_6:\n      mload(0x40)\n      dup1\n      swap2\n      sub\n      swap1\n      return\n    tag_5:\n      0x00\n      dup1\n      sload\n      swap1\n      0x0100\n      exp\n      swap1\n      div\n      0xff\n      and\n      dup2\n      jump\t// out\n        /* \"#utility.yul\":7:93   */\n    tag_8:\n        /* \"#utility.yul\":42:49   */\n      0x00\n        /* \"#utility.yul\":82:86   */\n      0xff\n        /* \"#utility.yul\":75:80   */\n      dup3\n        /* \"#utility.yul\":71:87   */\n      and\n        /* \"#utility.yul\":60:87   */\n      swap1\n      pop\n        /* \"#utility.yul\":7:93   */\n      swap2\n      swap1\n      pop\n      jump\t// out\n        /* \"#utility.yul\":99:211   */\n    tag_9:\n        /* \"#utility.yul\":182:204   */\n      tag_13\n        /* \"#utility.yul\":198:203   */\n      dup2\n        /* \"#utility.yul\":182:204   */\n      tag_8\n      jump\t// in\n    tag_13:\n        /* \"#utility.yul\":177:180   */\n      dup3\n        /* \"#utility.yul\":170:205   */\n      mstore\n        /* \"#utility.yul\":99:211   */\n      pop\n      pop\n      jump\t// out\n        /* \"#utility.yul\":217:431   */\n    tag_7:\n        /* \"#utility.yul\":306:310   */\n      0x00\n        /* \"#utility.yul\":344:346   */\n      0x20\n        /* \"#utility.yul\":333:342   */\n      dup3\n        /* \"#utility.yul\":329:347   */\n      add\n        /* \"#utility.yul\":321:347   */\n      swap1\n      pop\n        /* \"#utility.yul\":357:424   */\n      tag_15\n        /* \"#utility.yul\":421:422   */\n      0x00\n        /* \"#utility.yul\":410:419   */\n      dup4\n        /* \"#utility.yul\":406:423   */\n      add\n        /* \"#utility.yul\":397:403   */\n      dup5\n        /* \"#utility.yul\":357:424   */\n      tag_9\n      jump\t// in\n    tag_15:\n        /* \"#utility.yul\":217:431   */\n      swap3\n      swap2\n      pop\n      pop\n      jump\t// out\n\n    auxdata: 0xa2646970667358221220158d82aa6b37cc6413e62fc739c7d47dd44852d859d2675e364ad24a6a77016b64736f6c634300081a0033\n}\n",
				"bytecode": {
					"linkReferences": {},
					"object": "6080604052600a5f806101000a81548160ff021916908360ff1602179055503480156028575f80fd5b50604051610187380380610187833981810160405281019060489190609b565b805f806101000a81548160ff021916908360ff1602179055505060c1565b5f80fd5b5f60ff82169050919050565b607d81606a565b81146086575f80fd5b50565b5f815190506095816076565b92915050565b5f6020828403121560ad5760ac6066565b5b5f60b8848285016089565b91505092915050565b60ba806100cd5f395ff3fe6080604052348015600e575f80fd5b50600436106026575f3560e01c80633c6bb43614602a575b5f80fd5b60306044565b604051603b9190606d565b60405180910390f35b5f8054906101000a900460ff1681565b5f60ff82169050919050565b6067816054565b82525050565b5f602082019050607e5f8301846060565b9291505056fea2646970667358221220158d82aa6b37cc6413e62fc739c7d47dd44852d859d2675e364ad24a6a77016b64736f6c634300081a0033",
					"opcodes": "PUSH1 0x80 PUSH1 0x40 MSTORE PUSH1 0xA PUSH0 DUP1 PUSH2 0x100 EXP DUP2 SLOAD DUP2 PUSH1 0xFF MUL NOT AND SWAP1 DUP4 PUSH1 0xFF AND MUL OR SWAP1 SSTORE POP CALLVALUE DUP1 ISZERO PUSH1 0x28 JUMPI PUSH0 DUP1 REVERT JUMPDEST POP PUSH1 0x40 MLOAD PUSH2 0x187 CODESIZE SUB DUP1 PUSH2 0x187 DUP4 CODECOPY DUP2 DUP2 ADD PUSH1 0x40 MSTORE DUP2 ADD SWAP1 PUSH1 0x48 SWAP2 SWAP1 PUSH1 0x9B JUMP JUMPDEST DUP1 PUSH0 DUP1 PUSH2 0x100 EXP DUP2 SLOAD DUP2 PUSH1 0xFF MUL NOT AND SWAP1 DUP4 PUSH1 0xFF AND MUL OR SWAP1 SSTORE POP POP PUSH1 0xC1 JUMP JUMPDEST PUSH0 DUP1 REVERT JUMPDEST PUSH0 PUSH1 0xFF DUP3 AND SWAP1 POP SWAP2 SWAP1 POP JUMP JUMPDEST PUSH1 0x7D DUP2 PUSH1 0x6A JUMP JUMPDEST DUP2 EQ PUSH1 0x86 JUMPI PUSH0 DUP1 REVERT JUMPDEST POP JUMP JUMPDEST PUSH0 DUP2 MLOAD SWAP1 POP PUSH1 0x95 DUP2 PUSH1 0x76 JUMP JUMPDEST SWAP3 SWAP2 POP POP JUMP JUMPDEST PUSH0 PUSH1 0x20 DUP3 DUP5 SUB SLT ISZERO PUSH1 0xAD JUMPI PUSH1 0xAC PUSH1 0x66 JUMP JUMPDEST JUMPDEST PUSH0 PUSH1 0xB8 DUP5 DUP3 DUP6 ADD PUSH1 0x89 JUMP JUMPDEST SWAP2 POP POP SWAP3 SWAP2 POP POP JUMP JUMPDEST PUSH1 0xBA DUP1 PUSH2 0xCD PUSH0 CODECOPY PUSH0 RETURN INVALID PUSH1 0x80 PUSH1 0x40 MSTORE CALLVALUE DUP1 ISZERO PUSH1 0xE JUMPI PUSH0 DUP1 REVERT JUMPDEST POP PUSH1 0x4 CALLDATASIZE LT PUSH1 0x26 JUMPI PUSH0 CALLDATALOAD PUSH1 0xE0 SHR DUP1 PUSH4 0x3C6BB436 EQ PUSH1 0x2A JUMPI JUMPDEST PUSH0 DUP1 REVERT JUMPDEST PUSH1 0x30 PUSH1 0x44 JUMP JUMPDEST PUSH1 0x40 MLOAD PUSH1 0x3B SWAP2 SWAP1 PUSH1 0x6D JUMP JUMPDEST PUSH1 0x40 MLOAD DUP1 SWAP2 SUB SWAP1 RETURN JUMPDEST PUSH0 DUP1 SLOAD SWAP1 PUSH2 0x100 EXP SWAP1 DIV PUSH1 0xFF AND DUP2 JUMP JUMPDEST PUSH0 PUSH1 0xFF DUP3 AND SWAP1 POP SWAP2 SWAP1 POP JUMP JUMPDEST PUSH1 0x67 DUP2 PUSH1 0x54 JUMP JUMPDEST DUP3 MSTORE POP POP JUMP JUMPDEST PUSH0 PUSH1 0x20 DUP3 ADD SWAP1 POP PUSH1 0x7E PUSH0 DUP4 ADD DUP5 PUSH1 0x60 JUMP JUMPDEST SWAP3 SWAP2 POP POP JUMP INVALID LOG2 PUSH5 0x6970667358 0x22 SLT KECCAK256 ISZERO DUP14 DUP3 0xAA PUSH12 0x37CC6413E62FC739C7D47DD4 BASEFEE MSTORE 0xD8 MSIZE 0xD2 PUSH8 0x5E364AD24A6A7701 PUSH12 0x64736F6C634300081A003300 "
				},
				"gasEstimates": {
					"creation": {
						"codeDepositCost": "37200",
						"executionCost": "infinite",
						"totalCost": "infinite"
					},
					"external": {
						"val()": "2441"
					}
				},
				"methodIdentifiers": {
					"val()": "3c6bb436"
				}
			},
			"storageLayout": {
				"storage": [
					{
						"astId": 4,
						"contract": "learnings/constructors.sol:constr",
						"label": "val",
						"offset": 0,
						"slot": "0",
						"type": "t_uint8"
					}
				],
				"types": {
					"t_uint8": {
						"encoding": "inplace",
						"label": "uint8",
						"numberOfBytes": "1"
					}
				}
			},
			"userdoc": {
				"kind": "user",
				"methods": {},
				"version": 1
			}
		}
	}
}