{
	"learnings/functions.sol": {
		"func": {
			"abi": [
				{
					"inputs": [
						{
							"internalType": "uint8",
							"name": "newVal",
							"type": "uint8"
						}
					],
					"name": "setNewVal",
					"outputs": [
						{
							"internalType": "uint8",
							"name": "",
							"type": "uint8"
						}
					],
					"stateMutability": "nonpayable",
					"type": "function"
				},
				{
					"inputs": [],
					"name": "setter",
					"outputs": [
						{
							"internalType": "uint8",
							"name": "",
							"type": "uint8"
						}
					],
					"stateMutability": "nonpayable",
					"type": "function"
				},
				{
					"inputs": [],
					"name": "val",
					"outputs": [
						{
							"internalType": "uint8",
							"name": "",
							"type": "uint8"
						}
					],
					"stateMutability": "view",
					"type": "function"
				}
			],
			"devdoc": {
				"kind": "dev",
				"methods": {},
				"version": 1
			},
			"evm": {
				"assembly": "    /* \"learnings/functions.sol\":58:476  contract func {... */\n  mstore(0x40, 0x80)\n    /* \"learnings/functions.sol\":98:100  10 */\n  0x0a\n    /* \"learnings/functions.sol\":78:100  uint8  public val = 10 */\n  0x00\n  dup1\n  0x0100\n  exp\n  dup2\n  sload\n  dup2\n  0xff\n  mul\n  not\n  and\n  swap1\n  dup4\n  0xff\n  and\n  mul\n  or\n  swap1\n  sstore\n  pop\n    /* \"learnings/functions.sol\":58:476  contract func {... */\n  callvalue\n  dup1\n  iszero\n  tag_1\n  jumpi\n  0x00\n  dup1\n  revert\ntag_1:\n  pop\n  dataSize(sub_0)\n  dup1\n  dataOffset(sub_0)\n  0x00\n  codecopy\n  0x00\n  return\nstop\n\nsub_0: assembly {\n        /* \"learnings/functions.sol\":58:476  contract func {... */\n      mstore(0x40, 0x80)\n      callvalue\n      dup1\n      iszero\n      tag_1\n      jumpi\n      0x00\n      dup1\n      revert\n    tag_1:\n      pop\n      jumpi(tag_2, lt(calldatasize, 0x04))\n      shr(0xe0, calldataload(0x00))\n      dup1\n      0x15230261\n      eq\n      tag_3\n      jumpi\n      dup1\n      0x3c6bb436\n      eq\n      tag_4\n      jumpi\n      dup1\n      0x3f3108f7\n      eq\n      tag_5\n      jumpi\n    tag_2:\n      0x00\n      dup1\n      revert\n        /* \"learnings/functions.sol\":369:474  function setNewVal(uint8 newVal) public returns (uint8) {... */\n    tag_3:\n      tag_6\n      0x04\n      dup1\n      calldatasize\n      sub\n      dup2\n      add\n      swap1\n      tag_7\n      swap2\n      swap1\n      tag_8\n      jump\t// in\n    tag_7:\n      tag_9\n      jump\t// in\n    tag_6:\n      mload(0x40)\n      tag_10\n      swap2\n      swap1\n      tag_11\n      jump\t// in\n    tag_10:\n      mload(0x40)\n      dup1\n      swap2\n      sub\n      swap1\n      return\n        /* \"learnings/functions.sol\":78:100  uint8  public val = 10 */\n    tag_4:\n      tag_12\n      tag_13\n      jump\t// in\n    tag_12:\n      mload(0x40)\n      tag_14\n      swap2\n      swap1\n      tag_11\n      jump\t// in\n    tag_14:\n      mload(0x40)\n      dup1\n      swap2\n      sub\n      swap1\n      return\n        /* \"learnings/functions.sol\":277:363  function setter() public returns (uint8) {... */\n    tag_5:\n      tag_15\n      tag_16\n      jump\t// in\n    tag_15:\n      mload(0x40)\n      tag_17\n      swap2\n      swap1\n      tag_11\n      jump\t// in\n    tag_17:\n      mload(0x40)\n      dup1\n      swap2\n      sub\n      swap1\n      return\n        /* \"learnings/functions.sol\":369:474  function setNewVal(uint8 newVal) public returns (uint8) {... */\n    tag_9:\n        /* \"learnings/functions.sol\":418:423  uint8 */\n      0x00\n        /* \"learnings/functions.sol\":441:447  newVal */\n      dup2\n        /* \"learnings/functions.sol\":435:438  val */\n      0x00\n      dup1\n        /* \"learnings/functions.sol\":435:447  val = newVal */\n      0x0100\n      exp\n      dup2\n      sload\n      dup2\n      0xff\n      mul\n      not\n      and\n      swap1\n      dup4\n      0xff\n      and\n      mul\n      or\n      swap1\n      sstore\n      pop\n        /* \"learnings/functions.sol\":464:467  val */\n      0x00\n      dup1\n      sload\n      swap1\n      0x0100\n      exp\n      swap1\n      div\n      0xff\n      and\n        /* \"learnings/functions.sol\":457:467  return val */\n      swap1\n      pop\n        /* \"learnings/functions.sol\":369:474  function setNewVal(uint8 newVal) public returns (uint8) {... */\n      swap2\n      swap1\n      pop\n      jump\t// out\n        /* \"learnings/functions.sol\":78:100  uint8  public val = 10 */\n    tag_13:\n      0x00\n      dup1\n      sload\n      swap1\n      0x0100\n      exp\n      swap1\n      div\n      0xff\n      and\n      dup2\n      jump\t// out\n        /* \"learnings/functions.sol\":277:363  function setter() public returns (uint8) {... */\n    tag_16:\n        /* \"learnings/functions.sol\":311:316  uint8 */\n      0x00\n        /* \"learnings/functions.sol\":335:336  1 */\n      0x01\n        /* \"learnings/functions.sol\":328:331  val */\n      0x00\n      dup1\n        /* \"learnings/functions.sol\":328:336  val += 1 */\n      dup3\n      dup3\n      dup3\n      swap1\n      sload\n      swap1\n      0x0100\n      exp\n      swap1\n      div\n      0xff\n      and\n      tag_20\n      swap2\n      swap1\n      tag_21\n      jump\t// in\n    tag_20:\n      swap3\n      pop\n      0x0100\n      exp\n      dup2\n      sload\n      dup2\n      0xff\n      mul\n      not\n      and\n      swap1\n      dup4\n      0xff\n      and\n      mul\n      or\n      swap1\n      sstore\n      pop\n        /* \"learnings/functions.sol\":353:356  val */\n      0x00\n      dup1\n      sload\n      swap1\n      0x0100\n      exp\n      swap1\n      div\n      0xff\n      and\n        /* \"learnings/functions.sol\":346:356  return val */\n      swap1\n      pop\n        /* \"learnings/functions.sol\":277:363  function setter() public returns (uint8) {... */\n      swap1\n      jump\t// out\n        /* \"#utility.yul\":88:205   */\n    tag_23:\n        /* \"#utility.yul\":197:198   */\n      0x00\n        /* \"#utility.yul\":194:195   */\n      dup1\n        /* \"#utility.yul\":187:199   */\n      revert\n        /* \"#utility.yul\":334:420   */\n    tag_25:\n        /* \"#utility.yul\":369:376   */\n      0x00\n        /* \"#utility.yul\":409:413   */\n      0xff\n        /* \"#utility.yul\":402:407   */\n      dup3\n        /* \"#utility.yul\":398:414   */\n      and\n        /* \"#utility.yul\":387:414   */\n      swap1\n      pop\n        /* \"#utility.yul\":334:420   */\n      swap2\n      swap1\n      pop\n      jump\t// out\n        /* \"#utility.yul\":426:544   */\n    tag_26:\n        /* \"#utility.yul\":497:519   */\n      tag_36\n        /* \"#utility.yul\":513:518   */\n      dup2\n        /* \"#utility.yul\":497:519   */\n      tag_25\n      jump\t// in\n    tag_36:\n        /* \"#utility.yul\":490:495   */\n      dup2\n        /* \"#utility.yul\":487:520   */\n      eq\n        /* \"#utility.yul\":477:538   */\n      tag_37\n      jumpi\n        /* \"#utility.yul\":534:535   */\n      0x00\n        /* \"#utility.yul\":531:532   */\n      dup1\n        /* \"#utility.yul\":524:536   */\n      revert\n        /* \"#utility.yul\":477:538   */\n    tag_37:\n        /* \"#utility.yul\":426:544   */\n      pop\n      jump\t// out\n        /* \"#utility.yul\":550:685   */\n    tag_27:\n        /* \"#utility.yul\":594:599   */\n      0x00\n        /* \"#utility.yul\":632:638   */\n      dup2\n        /* \"#utility.yul\":619:639   */\n      calldataload\n        /* \"#utility.yul\":610:639   */\n      swap1\n      pop\n        /* \"#utility.yul\":648:679   */\n      tag_39\n        /* \"#utility.yul\":673:678   */\n      dup2\n        /* \"#utility.yul\":648:679   */\n      tag_26\n      jump\t// in\n    tag_39:\n        /* \"#utility.yul\":550:685   */\n      swap3\n      swap2\n      pop\n      pop\n      jump\t// out\n        /* \"#utility.yul\":691:1016   */\n    tag_8:\n        /* \"#utility.yul\":748:754   */\n      0x00\n        /* \"#utility.yul\":797:799   */\n      0x20\n        /* \"#utility.yul\":785:794   */\n      dup3\n        /* \"#utility.yul\":776:783   */\n      dup5\n        /* \"#utility.yul\":772:795   */\n      sub\n        /* \"#utility.yul\":768:800   */\n      slt\n        /* \"#utility.yul\":765:884   */\n      iszero\n      tag_41\n      jumpi\n        /* \"#utility.yul\":803:882   */\n      tag_42\n      tag_23\n      jump\t// in\n    tag_42:\n        /* \"#utility.yul\":765:884   */\n    tag_41:\n        /* \"#utility.yul\":923:924   */\n      0x00\n        /* \"#utility.yul\":948:999   */\n      tag_43\n        /* \"#utility.yul\":991:998   */\n      dup5\n        /* \"#utility.yul\":982:988   */\n      dup3\n        /* \"#utility.yul\":971:980   */\n      dup6\n        /* \"#utility.yul\":967:989   */\n      add\n        /* \"#utility.yul\":948:999   */\n      tag_27\n      jump\t// in\n    tag_43:\n        /* \"#utility.yul\":938:999   */\n      swap2\n      pop\n        /* \"#utility.yul\":894:1009   */\n      pop\n        /* \"#utility.yul\":691:1016   */\n      swap3\n      swap2\n      pop\n      pop\n      jump\t// out\n        /* \"#utility.yul\":1022:1134   */\n    tag_28:\n        /* \"#utility.yul\":1105:1127   */\n      tag_45\n        /* \"#utility.yul\":1121:1126   */\n      dup2\n        /* \"#utility.yul\":1105:1127   */\n      tag_25\n      jump\t// in\n    tag_45:\n        /* \"#utility.yul\":1100:1103   */\n      dup3\n        /* \"#utility.yul\":1093:1128   */\n      mstore\n        /* \"#utility.yul\":1022:1134   */\n      pop\n      pop\n      jump\t// out\n        /* \"#utility.yul\":1140:1354   */\n    tag_11:\n        /* \"#utility.yul\":1229:1233   */\n      0x00\n        /* \"#utility.yul\":1267:1269   */\n      0x20\n        /* \"#utility.yul\":1256:1265   */\n      dup3\n        /* \"#utility.yul\":1252:1270   */\n      add\n        /* \"#utility.yul\":1244:1270   */\n      swap1\n      pop\n        /* \"#utility.yul\":1280:1347   */\n      tag_47\n        /* \"#utility.yul\":1344:1345   */\n      0x00\n        /* \"#utility.yul\":1333:1342   */\n      dup4\n        /* \"#utility.yul\":1329:1346   */\n      add\n        /* \"#utility.yul\":1320:1326   */\n      dup5\n        /* \"#utility.yul\":1280:1347   */\n      tag_28\n      jump\t// in\n    tag_47:\n        /* \"#utility.yul\":1140:1354   */\n      swap3\n      swap2\n      pop\n      pop\n      jump\t// out\n        /* \"#utility.yul\":1360:1540   */\n    tag_29:\n        /* \"#utility.yul\":1408:1485   */\n      0x4e487b7100000000000000000000000000000000000000000000000000000000\n        /* \"#utility.yul\":1405:1406   */\n      0x00\n        /* \"#utility.yul\":1398:1486   */\n      mstore\n        /* \"#utility.yul\":1505:1509   */\n      0x11\n        /* \"#utility.yul\":1502:1503   */\n      0x04\n        /* \"#utility.yul\":1495:1510   */\n      mstore\n        /* \"#utility.yul\":1529:1533   */\n      0x24\n        /* \"#utility.yul\":1526:1527   */\n      0x00\n        /* \"#utility.yul\":1519:1534   */\n      revert\n        /* \"#utility.yul\":1546:1734   */\n    tag_21:\n        /* \"#utility.yul\":1584:1587   */\n      0x00\n        /* \"#utility.yul\":1603:1621   */\n      tag_50\n        /* \"#utility.yul\":1619:1620   */\n      dup3\n        /* \"#utility.yul\":1603:1621   */\n      tag_25\n      jump\t// in\n    tag_50:\n        /* \"#utility.yul\":1598:1621   */\n      swap2\n      pop\n        /* \"#utility.yul\":1635:1653   */\n      tag_51\n        /* \"#utility.yul\":1651:1652   */\n      dup4\n        /* \"#utility.yul\":1635:1653   */\n      tag_25\n      jump\t// in\n    tag_51:\n        /* \"#utility.yul\":1630:1653   */\n      swap3\n      pop\n        /* \"#utility.yul\":1676:1677   */\n      dup3\n        /* \"#utility.yul\":1673:1674   */\n      dup3\n        /* \"#utility.yul\":1669:1678   */\n      add\n        /* \"#utility.yul\":1662:1678   */\n      swap1\n      pop\n        /* \"#utility.yul\":1699:1703   */\n      0xff\n        /* \"#utility.yul\":1694:1697   */\n      dup2\n        /* \"#utility.yul\":1691:1704   */\n      gt\n        /* \"#utility.yul\":1688:1727   */\n      iszero\n      tag_52\n      jumpi\n        /* \"#utility.yul\":1707:1725   */\n      tag_53\n      tag_29\n      jump\t// in\n    tag_53:\n        /* \"#utility.yul\":1688:1727   */\n    tag_52:\n        /* \"#utility.yul\":1546:1734   */\n      swap3\n      swap2\n      pop\n      pop\n      jump\t// out\n\n    auxdata: 0xa26469706673582212206a6d00692cbc368445f4e0f39ad3a8a64723198d53197167f0b06ca738d1875464736f6c634300081a0033\n}\n",
				"bytecode": {
					"linkReferences": {},
					"object": "6080604052600a5f806101000a81548160ff021916908360ff1602179055503480156028575f80fd5b50610259806100365f395ff3fe608060405234801561000f575f80fd5b506004361061003f575f3560e01c806315230261146100435780633c6bb436146100735780633f3108f714610091575b5f80fd5b61005d6004803603810190610058919061016f565b6100af565b60405161006a91906101a9565b60405180910390f35b61007b6100dd565b60405161008891906101a9565b60405180910390f35b6100996100ed565b6040516100a691906101a9565b60405180910390f35b5f815f806101000a81548160ff021916908360ff1602179055505f8054906101000a900460ff169050919050565b5f8054906101000a900460ff1681565b5f60015f808282829054906101000a900460ff1661010b91906101ef565b92506101000a81548160ff021916908360ff1602179055505f8054906101000a900460ff16905090565b5f80fd5b5f60ff82169050919050565b61014e81610139565b8114610158575f80fd5b50565b5f8135905061016981610145565b92915050565b5f6020828403121561018457610183610135565b5b5f6101918482850161015b565b91505092915050565b6101a381610139565b82525050565b5f6020820190506101bc5f83018461019a565b92915050565b7f4e487b71000000000000000000000000000000000000000000000000000000005f52601160045260245ffd5b5f6101f982610139565b915061020483610139565b9250828201905060ff81111561021d5761021c6101c2565b5b9291505056fea26469706673582212206a6d00692cbc368445f4e0f39ad3a8a64723198d53197167f0b06ca738d1875464736f6c634300081a0033",
					"opcodes": "PUSH1 0x80 PUSH1 0x40 MSTORE PUSH1 0xA PUSH0 DUP1 PUSH2 0x100 EXP DUP2 SLOAD DUP2 PUSH1 0xFF MUL NOT AND SWAP1 DUP4 PUSH1 0xFF AND MUL OR SWAP1 SSTORE POP CALLVALUE DUP1 ISZERO PUSH1 0x28 JUMPI PUSH0 DUP1 REVERT JUMPDEST POP PUSH2 0x259 DUP1 PUSH2 0x36 PUSH0 CODECOPY PUSH0 RETURN INVALID PUSH1 0x80 PUSH1 0x40 MSTORE CALLVALUE DUP1 ISZERO PUSH2 0xF JUMPI PUSH0 DUP1 REVERT JUMPDEST POP PUSH1 0x4 CALLDATASIZE LT PUSH2 0x3F JUMPI PUSH0 CALLDATALOAD PUSH1 0xE0 SHR DUP1 PUSH4 0x15230261 EQ PUSH2 0x43 JUMPI DUP1 PUSH4 0x3C6BB436 EQ PUSH2 0x73 JUMPI DUP1 PUSH4 0x3F3108F7 EQ PUSH2 0x91 JUMPI JUMPDEST PUSH0 DUP1 REVERT JUMPDEST PUSH2 0x5D PUSH1 0x4 DUP1 CALLDATASIZE SUB DUP2 ADD SWAP1 PUSH2 0x58 SWAP2 SWAP1 PUSH2 0x16F JUMP JUMPDEST PUSH2 0xAF JUMP JUMPDEST PUSH1 0x40 MLOAD PUSH2 0x6A SWAP2 SWAP1 PUSH2 0x1A9 JUMP JUMPDEST PUSH1 0x40 MLOAD DUP1 SWAP2 SUB SWAP1 RETURN JUMPDEST PUSH2 0x7B PUSH2 0xDD JUMP JUMPDEST PUSH1 0x40 MLOAD PUSH2 0x88 SWAP2 SWAP1 PUSH2 0x1A9 JUMP JUMPDEST PUSH1 0x40 MLOAD DUP1 SWAP2 SUB SWAP1 RETURN JUMPDEST PUSH2 0x99 PUSH2 0xED JUMP JUMPDEST PUSH1 0x40 MLOAD PUSH2 0xA6 SWAP2 SWAP1 PUSH2 0x1A9 JUMP JUMPDEST PUSH1 0x40 MLOAD DUP1 SWAP2 SUB SWAP1 RETURN JUMPDEST PUSH0 DUP2 PUSH0 DUP1 PUSH2 0x100 EXP DUP2 SLOAD DUP2 PUSH1 0xFF MUL NOT AND SWAP1 DUP4 PUSH1 0xFF AND MUL OR SWAP1 SSTORE POP PUSH0 DUP1 SLOAD SWAP1 PUSH2 0x100 EXP SWAP1 DIV PUSH1 0xFF AND SWAP1 POP SWAP2 SWAP1 POP JUMP JUMPDEST PUSH0 DUP1 SLOAD SWAP1 PUSH2 0x100 EXP SWAP1 DIV PUSH1 0xFF AND DUP2 JUMP JUMPDEST PUSH0 PUSH1 0x1 PUSH0 DUP1 DUP3 DUP3 DUP3 SWAP1 SLOAD SWAP1 PUSH2 0x100 EXP SWAP1 DIV PUSH1 0xFF AND PUSH2 0x10B SWAP2 SWAP1 PUSH2 0x1EF JUMP JUMPDEST SWAP3 POP PUSH2 0x100 EXP DUP2 SLOAD DUP2 PUSH1 0xFF MUL NOT AND SWAP1 DUP4 PUSH1 0xFF AND MUL OR SWAP1 SSTORE POP PUSH0 DUP1 SLOAD SWAP1 PUSH2 0x100 EXP SWAP1 DIV PUSH1 0xFF AND SWAP1 POP SWAP1 JUMP JUMPDEST PUSH0 DUP1 REVERT JUMPDEST PUSH0 PUSH1 0xFF DUP3 AND SWAP1 POP SWAP2 SWAP1 POP JUMP JUMPDEST PUSH2 0x14E DUP2 PUSH2 0x139 JUMP JUMPDEST DUP2 EQ PUSH2 0x158 JUMPI PUSH0 DUP1 REVERT JUMPDEST POP JUMP JUMPDEST PUSH0 DUP2 CALLDATALOAD SWAP1 POP PUSH2 0x169 DUP2 PUSH2 0x145 JUMP JUMPDEST SWAP3 SWAP2 POP POP JUMP JUMPDEST PUSH0 PUSH1 0x20 DUP3 DUP5 SUB SLT ISZERO PUSH2 0x184 JUMPI PUSH2 0x183 PUSH2 0x135 JUMP JUMPDEST JUMPDEST PUSH0 PUSH2 0x191 DUP5 DUP3 DUP6 ADD PUSH2 0x15B JUMP JUMPDEST SWAP2 POP POP SWAP3 SWAP2 POP POP JUMP JUMPDEST PUSH2 0x1A3 DUP2 PUSH2 0x139 JUMP JUMPDEST DUP3 MSTORE POP POP JUMP JUMPDEST PUSH0 PUSH1 0x20 DUP3 ADD SWAP1 POP PUSH2 0x1BC PUSH0 DUP4 ADD DUP5 PUSH2 0x19A JUMP JUMPDEST SWAP3 SWAP2 POP POP JUMP JUMPDEST PUSH32 0x4E487B7100000000000000000000000000000000000000000000000000000000 PUSH0 MSTORE PUSH1 0x11 PUSH1 0x4 MSTORE PUSH1 0x24 PUSH0 REVERT JUMPDEST PUSH0 PUSH2 0x1F9 DUP3 PUSH2 0x139 JUMP JUMPDEST SWAP2 POP PUSH2 0x204 DUP4 PUSH2 0x139 JUMP JUMPDEST SWAP3 POP DUP3 DUP3 ADD SWAP1 POP PUSH1 0xFF DUP2 GT ISZERO PUSH2 0x21D JUMPI PUSH2 0x21C PUSH2 0x1C2 JUMP JUMPDEST JUMPDEST SWAP3 SWAP2 POP POP JUMP INVALID LOG2 PUSH5 0x6970667358 0x22 SLT KECCAK256 PUSH11 0x6D00692CBC368445F4E0F3 SWAP11 0xD3 0xA8 0xA6 SELFBALANCE 0x23 NOT DUP14 MSTORE8 NOT PUSH18 0x67F0B06CA738D1875464736F6C634300081A STOP CALLER "
				},
				"gasEstimates": {
					"creation": {
						"codeDepositCost": "120200",
						"executionCost": "24429",
						"totalCost": "144629"
					},
					"external": {
						"setNewVal(uint8)": "infinite",
						"setter()": "infinite",
						"val()": "2463"
					}
				},
				"methodIdentifiers": {
					"setNewVal(uint8)": "15230261",
					"setter()": "3f3108f7",
					"val()": "3c6bb436"
				}
			},
			"storageLayout": {
				"storage": [
					{
						"astId": 4,
						"contract": "learnings/functions.sol:func",
						"label": "val",
						"offset": 0,
						"slot": "0",
						"type": "t_uint8"
					}
				],
				"types": {
					"t_uint8": {
						"encoding": "inplace",
						"label": "uint8",
						"numberOfBytes": "1"
					}
				}
			},
			"userdoc": {
				"kind": "user",
				"methods": {},
				"version": 1
			}
		}
	}
}