{
	"contracts/learnings/arrays.sol": {
		"Array": {
			"abi": [
				{
					"inputs": [
						{
							"internalType": "uint256",
							"name": "",
							"type": "uint256"
						}
					],
					"name": "arr",
					"outputs": [
						{
							"internalType": "uint256",
							"name": "",
							"type": "uint256"
						}
					],
					"stateMutability": "view",
					"type": "function"
				},
				{
					"inputs": [],
					"name": "length",
					"outputs": [
						{
							"internalType": "uint256",
							"name": "",
							"type": "uint256"
						}
					],
					"stateMutability": "view",
					"type": "function"
				},
				{
					"inputs": [],
					"name": "lengthArr",
					"outputs": [
						{
							"internalType": "uint256",
							"name": "",
							"type": "uint256"
						}
					],
					"stateMutability": "view",
					"type": "function"
				},
				{
					"inputs": [
						{
							"internalType": "uint256",
							"name": "",
							"type": "uint256"
						}
					],
					"name": "nums",
					"outputs": [
						{
							"internalType": "uint8",
							"name": "",
							"type": "uint8"
						}
					],
					"stateMutability": "view",
					"type": "function"
				},
				{
					"inputs": [],
					"name": "popElement",
					"outputs": [
						{
							"internalType": "uint256",
							"name": "",
							"type": "uint256"
						}
					],
					"stateMutability": "nonpayable",
					"type": "function"
				},
				{
					"inputs": [
						{
							"internalType": "uint256",
							"name": "val",
							"type": "uint256"
						}
					],
					"name": "pushElement",
					"outputs": [
						{
							"internalType": "uint256",
							"name": "",
							"type": "uint256"
						}
					],
					"stateMutability": "nonpayable",
					"type": "function"
				},
				{
					"inputs": [
						{
							"internalType": "uint8",
							"name": "ind",
							"type": "uint8"
						},
						{
							"internalType": "uint8",
							"name": "val",
							"type": "uint8"
						}
					],
					"name": "setValue",
					"outputs": [],
					"stateMutability": "nonpayable",
					"type": "function"
				}
			],
			"devdoc": {
				"kind": "dev",
				"methods": {},
				"version": 1
			},
			"evm": {
				"assembly": "    /* \"contracts/learnings/arrays.sol\":58:697  contract Array {... */\n  mstore(0x40, 0x80)\n    /* \"contracts/learnings/arrays.sol\":104:136  uint8[5] public nums = [1,2,3,4] */\n  mload(0x40)\n  dup1\n  0x80\n  add\n  0x40\n  mstore\n  dup1\n    /* \"contracts/learnings/arrays.sol\":128:129  1 */\n  0x01\n    /* \"contracts/learnings/arrays.sol\":104:136  uint8[5] public nums = [1,2,3,4] */\n  0xff\n  and\n  dup2\n  mstore\n  0x20\n  add\n    /* \"contracts/learnings/arrays.sol\":130:131  2 */\n  0x02\n    /* \"contracts/learnings/arrays.sol\":104:136  uint8[5] public nums = [1,2,3,4] */\n  0xff\n  and\n  dup2\n  mstore\n  0x20\n  add\n    /* \"contracts/learnings/arrays.sol\":132:133  3 */\n  0x03\n    /* \"contracts/learnings/arrays.sol\":104:136  uint8[5] public nums = [1,2,3,4] */\n  0xff\n  and\n  dup2\n  mstore\n  0x20\n  add\n    /* \"contracts/learnings/arrays.sol\":134:135  4 */\n  0x04\n    /* \"contracts/learnings/arrays.sol\":104:136  uint8[5] public nums = [1,2,3,4] */\n  0xff\n  and\n  dup2\n  mstore\n  pop\n  0x00\n  swap1\n  0x04\n  tag_1\n  swap3\n  swap2\n  swap1\n  tag_2\n  jump\t// in\ntag_1:\n  pop\n    /* \"contracts/learnings/arrays.sol\":58:697  contract Array {... */\n  callvalue\n  dup1\n  iszero\n  tag_3\n  jumpi\n  0x00\n  dup1\n  revert\ntag_3:\n  pop\n  jump(tag_4)\ntag_2:\n  dup3\n  add(0x1f, 0x05)\n  0x20\n  swap1\n  div\n  dup2\n  add\n  swap3\n  dup3\n  iszero\n  tag_5\n  jumpi\n  swap2\n  0x20\n  mul\n  dup3\n  add\n  0x00\ntag_6:\n  dup4\n  dup3\n  gt\n  iszero\n  tag_7\n  jumpi\n  dup4\n  mload\n  dup4\n  dup3\n  0x0100\n  exp\n  dup2\n  sload\n  dup2\n  0xff\n  mul\n  not\n  and\n  swap1\n  dup4\n  0xff\n  and\n  mul\n  or\n  swap1\n  sstore\n  pop\n  swap3\n  0x20\n  add\n  swap3\n  0x01\n  add\n  0x20\n  dup2\n  0x00\n  add\n  div\n  swap3\n  dup4\n  add\n  swap3\n  0x01\n  sub\n  mul\n  jump(tag_6)\ntag_7:\n  dup1\n  iszero\n  tag_8\n  jumpi\n  dup3\n  dup2\n  0x0100\n  exp\n  dup2\n  sload\n  swap1\n  0xff\n  mul\n  not\n  and\n  swap1\n  sstore\n  0x01\n  add\n  0x20\n  dup2\n  0x00\n  add\n  div\n  swap3\n  dup4\n  add\n  swap3\n  0x01\n  sub\n  mul\n  jump(tag_7)\ntag_8:\n  pop\ntag_5:\n  pop\n  swap1\n  pop\n  tag_9\n  swap2\n  swap1\n  tag_10\n  jump\t// in\ntag_9:\n  pop\n  swap1\n  jump\t// out\ntag_10:\ntag_11:\n  dup1\n  dup3\n  gt\n  iszero\n  tag_12\n  jumpi\n  0x00\n  dup2\n  0x00\n  swap1\n  sstore\n  pop\n  0x01\n  add\n  jump(tag_11)\ntag_12:\n  pop\n  swap1\n  jump\t// out\ntag_4:\n  dataSize(sub_0)\n  dup1\n  dataOffset(sub_0)\n  0x00\n  codecopy\n  0x00\n  return\nstop\n\nsub_0: assembly {\n        /* \"contracts/learnings/arrays.sol\":58:697  contract Array {... */\n      mstore(0x40, 0x80)\n      callvalue\n      dup1\n      iszero\n      tag_1\n      jumpi\n      0x00\n      dup1\n      revert\n    tag_1:\n      pop\n      jumpi(tag_2, lt(calldatasize, 0x04))\n      shr(0xe0, calldataload(0x00))\n      dup1\n      0x9a6fcbdd\n      gt\n      tag_10\n      jumpi\n      dup1\n      0x9a6fcbdd\n      eq\n      tag_6\n      jumpi\n      dup1\n      0x9be9fdec\n      eq\n      tag_7\n      jumpi\n      dup1\n      0xb0e4c85e\n      eq\n      tag_8\n      jumpi\n      dup1\n      0xfd1ee54c\n      eq\n      tag_9\n      jumpi\n      jump(tag_2)\n    tag_10:\n      dup1\n      0x1f7b6d32\n      eq\n      tag_3\n      jumpi\n      dup1\n      0x71e5ee5f\n      eq\n      tag_4\n      jumpi\n      dup1\n      0x78321efb\n      eq\n      tag_5\n      jumpi\n    tag_2:\n      0x00\n      dup1\n      revert\n        /* \"contracts/learnings/arrays.sol\":228:308  function length() public view returns (uint) {... */\n    tag_3:\n      tag_11\n      tag_12\n      jump\t// in\n    tag_11:\n      mload(0x40)\n      tag_13\n      swap2\n      swap1\n      tag_14\n      jump\t// in\n    tag_13:\n      mload(0x40)\n      dup1\n      swap2\n      sub\n      swap1\n      return\n        /* \"contracts/learnings/arrays.sol\":340:357  uint[] public arr */\n    tag_4:\n      tag_15\n      0x04\n      dup1\n      calldatasize\n      sub\n      dup2\n      add\n      swap1\n      tag_16\n      swap2\n      swap1\n      tag_17\n      jump\t// in\n    tag_16:\n      tag_18\n      jump\t// in\n    tag_15:\n      mload(0x40)\n      tag_19\n      swap2\n      swap1\n      tag_14\n      jump\t// in\n    tag_19:\n      mload(0x40)\n      dup1\n      swap2\n      sub\n      swap1\n      return\n        /* \"contracts/learnings/arrays.sol\":364:467  function pushElement(uint val) public returns (uint) {... */\n    tag_5:\n      tag_20\n      0x04\n      dup1\n      calldatasize\n      sub\n      dup2\n      add\n      swap1\n      tag_21\n      swap2\n      swap1\n      tag_17\n      jump\t// in\n    tag_21:\n      tag_22\n      jump\t// in\n    tag_20:\n      mload(0x40)\n      tag_23\n      swap2\n      swap1\n      tag_14\n      jump\t// in\n    tag_23:\n      mload(0x40)\n      dup1\n      swap2\n      sub\n      swap1\n      return\n        /* \"contracts/learnings/arrays.sol\":473:603  function popElement() public returns (uint) {... */\n    tag_6:\n      tag_24\n      tag_25\n      jump\t// in\n    tag_24:\n      mload(0x40)\n      tag_26\n      swap2\n      swap1\n      tag_14\n      jump\t// in\n    tag_26:\n      mload(0x40)\n      dup1\n      swap2\n      sub\n      swap1\n      return\n        /* \"contracts/learnings/arrays.sol\":143:222  function setValue(uint8 ind, uint8 val) public {... */\n    tag_7:\n      tag_27\n      0x04\n      dup1\n      calldatasize\n      sub\n      dup2\n      add\n      swap1\n      tag_28\n      swap2\n      swap1\n      tag_29\n      jump\t// in\n    tag_28:\n      tag_30\n      jump\t// in\n    tag_27:\n      stop\n        /* \"contracts/learnings/arrays.sol\":613:695  function lengthArr() public view returns (uint) {... */\n    tag_8:\n      tag_31\n      tag_32\n      jump\t// in\n    tag_31:\n      mload(0x40)\n      tag_33\n      swap2\n      swap1\n      tag_14\n      jump\t// in\n    tag_33:\n      mload(0x40)\n      dup1\n      swap2\n      sub\n      swap1\n      return\n        /* \"contracts/learnings/arrays.sol\":104:136  uint8[5] public nums = [1,2,3,4] */\n    tag_9:\n      tag_34\n      0x04\n      dup1\n      calldatasize\n      sub\n      dup2\n      add\n      swap1\n      tag_35\n      swap2\n      swap1\n      tag_17\n      jump\t// in\n    tag_35:\n      tag_36\n      jump\t// in\n    tag_34:\n      mload(0x40)\n      tag_37\n      swap2\n      swap1\n      tag_38\n      jump\t// in\n    tag_37:\n      mload(0x40)\n      dup1\n      swap2\n      sub\n      swap1\n      return\n        /* \"contracts/learnings/arrays.sol\":228:308  function length() public view returns (uint) {... */\n    tag_12:\n        /* \"contracts/learnings/arrays.sol\":267:271  uint */\n      0x00\n        /* \"contracts/learnings/arrays.sol\":290:301  nums.length */\n      0x05\n        /* \"contracts/learnings/arrays.sol\":283:301  return nums.length */\n      swap1\n      pop\n        /* \"contracts/learnings/arrays.sol\":228:308  function length() public view returns (uint) {... */\n      swap1\n      jump\t// out\n        /* \"contracts/learnings/arrays.sol\":340:357  uint[] public arr */\n    tag_18:\n      0x01\n      dup2\n      dup2\n      sload\n      dup2\n      lt\n      tag_40\n      jumpi\n      0x00\n      dup1\n      revert\n    tag_40:\n      swap1\n      0x00\n      mstore\n      keccak256(0x00, 0x20)\n      add\n      0x00\n      swap2\n      pop\n      swap1\n      pop\n      sload\n      dup2\n      jump\t// out\n        /* \"contracts/learnings/arrays.sol\":364:467  function pushElement(uint val) public returns (uint) {... */\n    tag_22:\n        /* \"contracts/learnings/arrays.sol\":411:415  uint */\n      0x00\n        /* \"contracts/learnings/arrays.sol\":427:430  arr */\n      0x01\n        /* \"contracts/learnings/arrays.sol\":436:439  val */\n      dup3\n        /* \"contracts/learnings/arrays.sol\":427:440  arr.push(val) */\n      swap1\n      dup1\n      0x01\n      dup2\n      sload\n      add\n      dup1\n      dup3\n      sstore\n      dup1\n      swap2\n      pop\n      pop\n      0x01\n      swap1\n      sub\n      swap1\n      0x00\n      mstore\n      keccak256(0x00, 0x20)\n      add\n      0x00\n      swap1\n      swap2\n      swap1\n      swap2\n      swap1\n      swap2\n      pop\n      sstore\n        /* \"contracts/learnings/arrays.sol\":457:460  val */\n      dup2\n        /* \"contracts/learnings/arrays.sol\":450:460  return val */\n      swap1\n      pop\n        /* \"contracts/learnings/arrays.sol\":364:467  function pushElement(uint val) public returns (uint) {... */\n      swap2\n      swap1\n      pop\n      jump\t// out\n        /* \"contracts/learnings/arrays.sol\":473:603  function popElement() public returns (uint) {... */\n    tag_25:\n        /* \"contracts/learnings/arrays.sol\":511:515  uint */\n      0x00\n        /* \"contracts/learnings/arrays.sol\":527:536  uint temp */\n      dup1\n        /* \"contracts/learnings/arrays.sol\":539:542  arr */\n      0x01\n        /* \"contracts/learnings/arrays.sol\":554:555  1 */\n      dup1\n        /* \"contracts/learnings/arrays.sol\":543:546  arr */\n      dup1\n        /* \"contracts/learnings/arrays.sol\":543:553  arr.length */\n      dup1\n      sload\n      swap1\n      pop\n        /* \"contracts/learnings/arrays.sol\":543:555  arr.length-1 */\n      tag_45\n      swap2\n      swap1\n      tag_46\n      jump\t// in\n    tag_45:\n        /* \"contracts/learnings/arrays.sol\":539:556  arr[arr.length-1] */\n      dup2\n      sload\n      dup2\n      lt\n      tag_47\n      jumpi\n      tag_48\n      tag_49\n      jump\t// in\n    tag_48:\n    tag_47:\n      swap1\n      0x00\n      mstore\n      keccak256(0x00, 0x20)\n      add\n      sload\n        /* \"contracts/learnings/arrays.sol\":527:556  uint temp = arr[arr.length-1] */\n      swap1\n      pop\n        /* \"contracts/learnings/arrays.sol\":566:569  arr */\n      0x01\n        /* \"contracts/learnings/arrays.sol\":566:575  arr.pop() */\n      dup1\n      sload\n      dup1\n      tag_51\n      jumpi\n      tag_52\n      tag_53\n      jump\t// in\n    tag_52:\n    tag_51:\n      0x01\n      swap1\n      sub\n      dup2\n      dup2\n      swap1\n      0x00\n      mstore\n      keccak256(0x00, 0x20)\n      add\n      0x00\n      swap1\n      sstore\n      swap1\n      sstore\n        /* \"contracts/learnings/arrays.sol\":592:596  temp */\n      dup1\n        /* \"contracts/learnings/arrays.sol\":585:596  return temp */\n      swap2\n      pop\n      pop\n        /* \"contracts/learnings/arrays.sol\":473:603  function popElement() public returns (uint) {... */\n      swap1\n      jump\t// out\n        /* \"contracts/learnings/arrays.sol\":143:222  function setValue(uint8 ind, uint8 val) public {... */\n    tag_30:\n        /* \"contracts/learnings/arrays.sol\":212:215  val */\n      dup1\n        /* \"contracts/learnings/arrays.sol\":200:204  nums */\n      0x00\n        /* \"contracts/learnings/arrays.sol\":205:208  ind */\n      dup4\n        /* \"contracts/learnings/arrays.sol\":200:209  nums[ind] */\n      0xff\n      and\n      0x05\n      dup2\n      lt\n      tag_56\n      jumpi\n      tag_57\n      tag_49\n      jump\t// in\n    tag_57:\n    tag_56:\n      0x20\n      swap2\n      dup3\n      dup3\n      div\n      add\n      swap2\n      swap1\n      mod\n        /* \"contracts/learnings/arrays.sol\":200:215  nums[ind] = val */\n      0x0100\n      exp\n      dup2\n      sload\n      dup2\n      0xff\n      mul\n      not\n      and\n      swap1\n      dup4\n      0xff\n      and\n      mul\n      or\n      swap1\n      sstore\n      pop\n        /* \"contracts/learnings/arrays.sol\":143:222  function setValue(uint8 ind, uint8 val) public {... */\n      pop\n      pop\n      jump\t// out\n        /* \"contracts/learnings/arrays.sol\":613:695  function lengthArr() public view returns (uint) {... */\n    tag_32:\n        /* \"contracts/learnings/arrays.sol\":655:659  uint */\n      0x00\n        /* \"contracts/learnings/arrays.sol\":678:681  arr */\n      0x01\n        /* \"contracts/learnings/arrays.sol\":678:688  arr.length */\n      dup1\n      sload\n      swap1\n      pop\n        /* \"contracts/learnings/arrays.sol\":671:688  return arr.length */\n      swap1\n      pop\n        /* \"contracts/learnings/arrays.sol\":613:695  function lengthArr() public view returns (uint) {... */\n      swap1\n      jump\t// out\n        /* \"contracts/learnings/arrays.sol\":104:136  uint8[5] public nums = [1,2,3,4] */\n    tag_36:\n      0x00\n      dup2\n      0x05\n      dup2\n      lt\n      tag_60\n      jumpi\n      0x00\n      dup1\n      revert\n    tag_60:\n      0x20\n      swap2\n      dup3\n      dup3\n      div\n      add\n      swap2\n      swap1\n      mod\n      swap2\n      pop\n      sload\n      swap1\n      0x0100\n      exp\n      swap1\n      div\n      0xff\n      and\n      dup2\n      jump\t// out\n        /* \"#utility.yul\":7:84   */\n    tag_62:\n        /* \"#utility.yul\":44:51   */\n      0x00\n        /* \"#utility.yul\":73:78   */\n      dup2\n        /* \"#utility.yul\":62:78   */\n      swap1\n      pop\n        /* \"#utility.yul\":7:84   */\n      swap2\n      swap1\n      pop\n      jump\t// out\n        /* \"#utility.yul\":90:208   */\n    tag_63:\n        /* \"#utility.yul\":177:201   */\n      tag_77\n        /* \"#utility.yul\":195:200   */\n      dup2\n        /* \"#utility.yul\":177:201   */\n      tag_62\n      jump\t// in\n    tag_77:\n        /* \"#utility.yul\":172:175   */\n      dup3\n        /* \"#utility.yul\":165:202   */\n      mstore\n        /* \"#utility.yul\":90:208   */\n      pop\n      pop\n      jump\t// out\n        /* \"#utility.yul\":214:436   */\n    tag_14:\n        /* \"#utility.yul\":307:311   */\n      0x00\n        /* \"#utility.yul\":345:347   */\n      0x20\n        /* \"#utility.yul\":334:343   */\n      dup3\n        /* \"#utility.yul\":330:348   */\n      add\n        /* \"#utility.yul\":322:348   */\n      swap1\n      pop\n        /* \"#utility.yul\":358:429   */\n      tag_79\n        /* \"#utility.yul\":426:427   */\n      0x00\n        /* \"#utility.yul\":415:424   */\n      dup4\n        /* \"#utility.yul\":411:428   */\n      add\n        /* \"#utility.yul\":402:408   */\n      dup5\n        /* \"#utility.yul\":358:429   */\n      tag_63\n      jump\t// in\n    tag_79:\n        /* \"#utility.yul\":214:436   */\n      swap3\n      swap2\n      pop\n      pop\n      jump\t// out\n        /* \"#utility.yul\":523:640   */\n    tag_65:\n        /* \"#utility.yul\":632:633   */\n      0x00\n        /* \"#utility.yul\":629:630   */\n      dup1\n        /* \"#utility.yul\":622:634   */\n      revert\n        /* \"#utility.yul\":769:891   */\n    tag_67:\n        /* \"#utility.yul\":842:866   */\n      tag_84\n        /* \"#utility.yul\":860:865   */\n      dup2\n        /* \"#utility.yul\":842:866   */\n      tag_62\n      jump\t// in\n    tag_84:\n        /* \"#utility.yul\":835:840   */\n      dup2\n        /* \"#utility.yul\":832:867   */\n      eq\n        /* \"#utility.yul\":822:885   */\n      tag_85\n      jumpi\n        /* \"#utility.yul\":881:882   */\n      0x00\n        /* \"#utility.yul\":878:879   */\n      dup1\n        /* \"#utility.yul\":871:883   */\n      revert\n        /* \"#utility.yul\":822:885   */\n    tag_85:\n        /* \"#utility.yul\":769:891   */\n      pop\n      jump\t// out\n        /* \"#utility.yul\":897:1036   */\n    tag_68:\n        /* \"#utility.yul\":943:948   */\n      0x00\n        /* \"#utility.yul\":981:987   */\n      dup2\n        /* \"#utility.yul\":968:988   */\n      calldataload\n        /* \"#utility.yul\":959:988   */\n      swap1\n      pop\n        /* \"#utility.yul\":997:1030   */\n      tag_87\n        /* \"#utility.yul\":1024:1029   */\n      dup2\n        /* \"#utility.yul\":997:1030   */\n      tag_67\n      jump\t// in\n    tag_87:\n        /* \"#utility.yul\":897:1036   */\n      swap3\n      swap2\n      pop\n      pop\n      jump\t// out\n        /* \"#utility.yul\":1042:1371   */\n    tag_17:\n        /* \"#utility.yul\":1101:1107   */\n      0x00\n        /* \"#utility.yul\":1150:1152   */\n      0x20\n        /* \"#utility.yul\":1138:1147   */\n      dup3\n        /* \"#utility.yul\":1129:1136   */\n      dup5\n        /* \"#utility.yul\":1125:1148   */\n      sub\n        /* \"#utility.yul\":1121:1153   */\n      slt\n        /* \"#utility.yul\":1118:1237   */\n      iszero\n      tag_89\n      jumpi\n        /* \"#utility.yul\":1156:1235   */\n      tag_90\n      tag_65\n      jump\t// in\n    tag_90:\n        /* \"#utility.yul\":1118:1237   */\n    tag_89:\n        /* \"#utility.yul\":1276:1277   */\n      0x00\n        /* \"#utility.yul\":1301:1354   */\n      tag_91\n        /* \"#utility.yul\":1346:1353   */\n      dup5\n        /* \"#utility.yul\":1337:1343   */\n      dup3\n        /* \"#utility.yul\":1326:1335   */\n      dup6\n        /* \"#utility.yul\":1322:1344   */\n      add\n        /* \"#utility.yul\":1301:1354   */\n      tag_68\n      jump\t// in\n    tag_91:\n        /* \"#utility.yul\":1291:1354   */\n      swap2\n      pop\n        /* \"#utility.yul\":1247:1364   */\n      pop\n        /* \"#utility.yul\":1042:1371   */\n      swap3\n      swap2\n      pop\n      pop\n      jump\t// out\n        /* \"#utility.yul\":1377:1463   */\n    tag_69:\n        /* \"#utility.yul\":1412:1419   */\n      0x00\n        /* \"#utility.yul\":1452:1456   */\n      0xff\n        /* \"#utility.yul\":1445:1450   */\n      dup3\n        /* \"#utility.yul\":1441:1457   */\n      and\n        /* \"#utility.yul\":1430:1457   */\n      swap1\n      pop\n        /* \"#utility.yul\":1377:1463   */\n      swap2\n      swap1\n      pop\n      jump\t// out\n        /* \"#utility.yul\":1469:1587   */\n    tag_70:\n        /* \"#utility.yul\":1540:1562   */\n      tag_94\n        /* \"#utility.yul\":1556:1561   */\n      dup2\n        /* \"#utility.yul\":1540:1562   */\n      tag_69\n      jump\t// in\n    tag_94:\n        /* \"#utility.yul\":1533:1538   */\n      dup2\n        /* \"#utility.yul\":1530:1563   */\n      eq\n        /* \"#utility.yul\":1520:1581   */\n      tag_95\n      jumpi\n        /* \"#utility.yul\":1577:1578   */\n      0x00\n        /* \"#utility.yul\":1574:1575   */\n      dup1\n        /* \"#utility.yul\":1567:1579   */\n      revert\n        /* \"#utility.yul\":1520:1581   */\n    tag_95:\n        /* \"#utility.yul\":1469:1587   */\n      pop\n      jump\t// out\n        /* \"#utility.yul\":1593:1728   */\n    tag_71:\n        /* \"#utility.yul\":1637:1642   */\n      0x00\n        /* \"#utility.yul\":1675:1681   */\n      dup2\n        /* \"#utility.yul\":1662:1682   */\n      calldataload\n        /* \"#utility.yul\":1653:1682   */\n      swap1\n      pop\n        /* \"#utility.yul\":1691:1722   */\n      tag_97\n        /* \"#utility.yul\":1716:1721   */\n      dup2\n        /* \"#utility.yul\":1691:1722   */\n      tag_70\n      jump\t// in\n    tag_97:\n        /* \"#utility.yul\":1593:1728   */\n      swap3\n      swap2\n      pop\n      pop\n      jump\t// out\n        /* \"#utility.yul\":1734:2200   */\n    tag_29:\n        /* \"#utility.yul\":1798:1804   */\n      0x00\n        /* \"#utility.yul\":1806:1812   */\n      dup1\n        /* \"#utility.yul\":1855:1857   */\n      0x40\n        /* \"#utility.yul\":1843:1852   */\n      dup4\n        /* \"#utility.yul\":1834:1841   */\n      dup6\n        /* \"#utility.yul\":1830:1853   */\n      sub\n        /* \"#utility.yul\":1826:1858   */\n      slt\n        /* \"#utility.yul\":1823:1942   */\n      iszero\n      tag_99\n      jumpi\n        /* \"#utility.yul\":1861:1940   */\n      tag_100\n      tag_65\n      jump\t// in\n    tag_100:\n        /* \"#utility.yul\":1823:1942   */\n    tag_99:\n        /* \"#utility.yul\":1981:1982   */\n      0x00\n        /* \"#utility.yul\":2006:2057   */\n      tag_101\n        /* \"#utility.yul\":2049:2056   */\n      dup6\n        /* \"#utility.yul\":2040:2046   */\n      dup3\n        /* \"#utility.yul\":2029:2038   */\n      dup7\n        /* \"#utility.yul\":2025:2047   */\n      add\n        /* \"#utility.yul\":2006:2057   */\n      tag_71\n      jump\t// in\n    tag_101:\n        /* \"#utility.yul\":1996:2057   */\n      swap3\n      pop\n        /* \"#utility.yul\":1952:2067   */\n      pop\n        /* \"#utility.yul\":2106:2108   */\n      0x20\n        /* \"#utility.yul\":2132:2183   */\n      tag_102\n        /* \"#utility.yul\":2175:2182   */\n      dup6\n        /* \"#utility.yul\":2166:2172   */\n      dup3\n        /* \"#utility.yul\":2155:2164   */\n      dup7\n        /* \"#utility.yul\":2151:2173   */\n      add\n        /* \"#utility.yul\":2132:2183   */\n      tag_71\n      jump\t// in\n    tag_102:\n        /* \"#utility.yul\":2122:2183   */\n      swap2\n      pop\n        /* \"#utility.yul\":2077:2193   */\n      pop\n        /* \"#utility.yul\":1734:2200   */\n      swap3\n      pop\n      swap3\n      swap1\n      pop\n      jump\t// out\n        /* \"#utility.yul\":2206:2318   */\n    tag_72:\n        /* \"#utility.yul\":2289:2311   */\n      tag_104\n        /* \"#utility.yul\":2305:2310   */\n      dup2\n        /* \"#utility.yul\":2289:2311   */\n      tag_69\n      jump\t// in\n    tag_104:\n        /* \"#utility.yul\":2284:2287   */\n      dup3\n        /* \"#utility.yul\":2277:2312   */\n      mstore\n        /* \"#utility.yul\":2206:2318   */\n      pop\n      pop\n      jump\t// out\n        /* \"#utility.yul\":2324:2538   */\n    tag_38:\n        /* \"#utility.yul\":2413:2417   */\n      0x00\n        /* \"#utility.yul\":2451:2453   */\n      0x20\n        /* \"#utility.yul\":2440:2449   */\n      dup3\n        /* \"#utility.yul\":2436:2454   */\n      add\n        /* \"#utility.yul\":2428:2454   */\n      swap1\n      pop\n        /* \"#utility.yul\":2464:2531   */\n      tag_106\n        /* \"#utility.yul\":2528:2529   */\n      0x00\n        /* \"#utility.yul\":2517:2526   */\n      dup4\n        /* \"#utility.yul\":2513:2530   */\n      add\n        /* \"#utility.yul\":2504:2510   */\n      dup5\n        /* \"#utility.yul\":2464:2531   */\n      tag_72\n      jump\t// in\n    tag_106:\n        /* \"#utility.yul\":2324:2538   */\n      swap3\n      swap2\n      pop\n      pop\n      jump\t// out\n        /* \"#utility.yul\":2544:2724   */\n    tag_73:\n        /* \"#utility.yul\":2592:2669   */\n      0x4e487b7100000000000000000000000000000000000000000000000000000000\n        /* \"#utility.yul\":2589:2590   */\n      0x00\n        /* \"#utility.yul\":2582:2670   */\n      mstore\n        /* \"#utility.yul\":2689:2693   */\n      0x11\n        /* \"#utility.yul\":2686:2687   */\n      0x04\n        /* \"#utility.yul\":2679:2694   */\n      mstore\n        /* \"#utility.yul\":2713:2717   */\n      0x24\n        /* \"#utility.yul\":2710:2711   */\n      0x00\n        /* \"#utility.yul\":2703:2718   */\n      revert\n        /* \"#utility.yul\":2730:2924   */\n    tag_46:\n        /* \"#utility.yul\":2770:2774   */\n      0x00\n        /* \"#utility.yul\":2790:2810   */\n      tag_109\n        /* \"#utility.yul\":2808:2809   */\n      dup3\n        /* \"#utility.yul\":2790:2810   */\n      tag_62\n      jump\t// in\n    tag_109:\n        /* \"#utility.yul\":2785:2810   */\n      swap2\n      pop\n        /* \"#utility.yul\":2824:2844   */\n      tag_110\n        /* \"#utility.yul\":2842:2843   */\n      dup4\n        /* \"#utility.yul\":2824:2844   */\n      tag_62\n      jump\t// in\n    tag_110:\n        /* \"#utility.yul\":2819:2844   */\n      swap3\n      pop\n        /* \"#utility.yul\":2868:2869   */\n      dup3\n        /* \"#utility.yul\":2865:2866   */\n      dup3\n        /* \"#utility.yul\":2861:2870   */\n      sub\n        /* \"#utility.yul\":2853:2870   */\n      swap1\n      pop\n        /* \"#utility.yul\":2892:2893   */\n      dup2\n        /* \"#utility.yul\":2886:2890   */\n      dup2\n        /* \"#utility.yul\":2883:2894   */\n      gt\n        /* \"#utility.yul\":2880:2917   */\n      iszero\n      tag_111\n      jumpi\n        /* \"#utility.yul\":2897:2915   */\n      tag_112\n      tag_73\n      jump\t// in\n    tag_112:\n        /* \"#utility.yul\":2880:2917   */\n    tag_111:\n        /* \"#utility.yul\":2730:2924   */\n      swap3\n      swap2\n      pop\n      pop\n      jump\t// out\n        /* \"#utility.yul\":2930:3110   */\n    tag_49:\n        /* \"#utility.yul\":2978:3055   */\n      0x4e487b7100000000000000000000000000000000000000000000000000000000\n        /* \"#utility.yul\":2975:2976   */\n      0x00\n        /* \"#utility.yul\":2968:3056   */\n      mstore\n        /* \"#utility.yul\":3075:3079   */\n      0x32\n        /* \"#utility.yul\":3072:3073   */\n      0x04\n        /* \"#utility.yul\":3065:3080   */\n      mstore\n        /* \"#utility.yul\":3099:3103   */\n      0x24\n        /* \"#utility.yul\":3096:3097   */\n      0x00\n        /* \"#utility.yul\":3089:3104   */\n      revert\n        /* \"#utility.yul\":3116:3296   */\n    tag_53:\n        /* \"#utility.yul\":3164:3241   */\n      0x4e487b7100000000000000000000000000000000000000000000000000000000\n        /* \"#utility.yul\":3161:3162   */\n      0x00\n        /* \"#utility.yul\":3154:3242   */\n      mstore\n        /* \"#utility.yul\":3261:3265   */\n      0x31\n        /* \"#utility.yul\":3258:3259   */\n      0x04\n        /* \"#utility.yul\":3251:3266   */\n      mstore\n        /* \"#utility.yul\":3285:3289   */\n      0x24\n        /* \"#utility.yul\":3282:3283   */\n      0x00\n        /* \"#utility.yul\":3275:3290   */\n      revert\n\n    auxdata: 0xa2646970667358221220fc87070b038a45980791590e133b8f5248d77abfca49e102323a2db77d034c9864736f6c634300081a0033\n}\n",
				"bytecode": {
					"linkReferences": {},
					"object": "60806040526040518060800160405280600160ff168152602001600260ff168152602001600360ff168152602001600460ff168152505f906004610044929190610056565b50348015610050575f80fd5b50610108565b826005601f016020900481019282156100dc579160200282015f5b838211156100ae57835183826101000a81548160ff021916908360ff16021790555092602001926001016020815f01049283019260010302610071565b80156100da5782816101000a81549060ff02191690556001016020815f010492830192600103026100ae565b505b5090506100e991906100ed565b5090565b5b80821115610104575f815f9055506001016100ee565b5090565b6104bd806101155f395ff3fe608060405234801561000f575f80fd5b506004361061007b575f3560e01c80639a6fcbdd116100595780639a6fcbdd146100fd5780639be9fdec1461011b578063b0e4c85e14610137578063fd1ee54c146101555761007b565b80631f7b6d321461007f57806371e5ee5f1461009d57806378321efb146100cd575b5f80fd5b610087610185565b60405161009491906102bf565b60405180910390f35b6100b760048036038101906100b29190610306565b61018d565b6040516100c491906102bf565b60405180910390f35b6100e760048036038101906100e29190610306565b6101ad565b6040516100f491906102bf565b60405180910390f35b6101056101dc565b60405161011291906102bf565b60405180910390f35b61013560048036038101906101309190610367565b610238565b005b61013f610273565b60405161014c91906102bf565b60405180910390f35b61016f600480360381019061016a9190610306565b61027f565b60405161017c91906103b4565b60405180910390f35b5f6005905090565b6001818154811061019c575f80fd5b905f5260205f20015f915090505481565b5f600182908060018154018082558091505060019003905f5260205f20015f9091909190915055819050919050565b5f8060018080805490506101f091906103fa565b815481106102015761020061042d565b5b905f5260205f2001549050600180548061021e5761021d61045a565b5b600190038181905f5260205f20015f905590558091505090565b805f8360ff166005811061024f5761024e61042d565b5b602091828204019190066101000a81548160ff021916908360ff1602179055505050565b5f600180549050905090565b5f816005811061028d575f80fd5b60209182820401919006915054906101000a900460ff1681565b5f819050919050565b6102b9816102a7565b82525050565b5f6020820190506102d25f8301846102b0565b92915050565b5f80fd5b6102e5816102a7565b81146102ef575f80fd5b50565b5f81359050610300816102dc565b92915050565b5f6020828403121561031b5761031a6102d8565b5b5f610328848285016102f2565b91505092915050565b5f60ff82169050919050565b61034681610331565b8114610350575f80fd5b50565b5f813590506103618161033d565b92915050565b5f806040838503121561037d5761037c6102d8565b5b5f61038a85828601610353565b925050602061039b85828601610353565b9150509250929050565b6103ae81610331565b82525050565b5f6020820190506103c75f8301846103a5565b92915050565b7f4e487b71000000000000000000000000000000000000000000000000000000005f52601160045260245ffd5b5f610404826102a7565b915061040f836102a7565b9250828203905081811115610427576104266103cd565b5b92915050565b7f4e487b71000000000000000000000000000000000000000000000000000000005f52603260045260245ffd5b7f4e487b71000000000000000000000000000000000000000000000000000000005f52603160045260245ffdfea2646970667358221220fc87070b038a45980791590e133b8f5248d77abfca49e102323a2db77d034c9864736f6c634300081a0033",
					"opcodes": "PUSH1 0x80 PUSH1 0x40 MSTORE PUSH1 0x40 MLOAD DUP1 PUSH1 0x80 ADD PUSH1 0x40 MSTORE DUP1 PUSH1 0x1 PUSH1 0xFF AND DUP2 MSTORE PUSH1 0x20 ADD PUSH1 0x2 PUSH1 0xFF AND DUP2 MSTORE PUSH1 0x20 ADD PUSH1 0x3 PUSH1 0xFF AND DUP2 MSTORE PUSH1 0x20 ADD PUSH1 0x4 PUSH1 0xFF AND DUP2 MSTORE POP PUSH0 SWAP1 PUSH1 0x4 PUSH2 0x44 SWAP3 SWAP2 SWAP1 PUSH2 0x56 JUMP JUMPDEST POP CALLVALUE DUP1 ISZERO PUSH2 0x50 JUMPI PUSH0 DUP1 REVERT JUMPDEST POP PUSH2 0x108 JUMP JUMPDEST DUP3 PUSH1 0x5 PUSH1 0x1F ADD PUSH1 0x20 SWAP1 DIV DUP2 ADD SWAP3 DUP3 ISZERO PUSH2 0xDC JUMPI SWAP2 PUSH1 0x20 MUL DUP3 ADD PUSH0 JUMPDEST DUP4 DUP3 GT ISZERO PUSH2 0xAE JUMPI DUP4 MLOAD DUP4 DUP3 PUSH2 0x100 EXP DUP2 SLOAD DUP2 PUSH1 0xFF MUL NOT AND SWAP1 DUP4 PUSH1 0xFF AND MUL OR SWAP1 SSTORE POP SWAP3 PUSH1 0x20 ADD SWAP3 PUSH1 0x1 ADD PUSH1 0x20 DUP2 PUSH0 ADD DIV SWAP3 DUP4 ADD SWAP3 PUSH1 0x1 SUB MUL PUSH2 0x71 JUMP JUMPDEST DUP1 ISZERO PUSH2 0xDA JUMPI DUP3 DUP2 PUSH2 0x100 EXP DUP2 SLOAD SWAP1 PUSH1 0xFF MUL NOT AND SWAP1 SSTORE PUSH1 0x1 ADD PUSH1 0x20 DUP2 PUSH0 ADD DIV SWAP3 DUP4 ADD SWAP3 PUSH1 0x1 SUB MUL PUSH2 0xAE JUMP JUMPDEST POP JUMPDEST POP SWAP1 POP PUSH2 0xE9 SWAP2 SWAP1 PUSH2 0xED JUMP JUMPDEST POP SWAP1 JUMP JUMPDEST JUMPDEST DUP1 DUP3 GT ISZERO PUSH2 0x104 JUMPI PUSH0 DUP2 PUSH0 SWAP1 SSTORE POP PUSH1 0x1 ADD PUSH2 0xEE JUMP JUMPDEST POP SWAP1 JUMP JUMPDEST PUSH2 0x4BD DUP1 PUSH2 0x115 PUSH0 CODECOPY PUSH0 RETURN INVALID PUSH1 0x80 PUSH1 0x40 MSTORE CALLVALUE DUP1 ISZERO PUSH2 0xF JUMPI PUSH0 DUP1 REVERT JUMPDEST POP PUSH1 0x4 CALLDATASIZE LT PUSH2 0x7B JUMPI PUSH0 CALLDATALOAD PUSH1 0xE0 SHR DUP1 PUSH4 0x9A6FCBDD GT PUSH2 0x59 JUMPI DUP1 PUSH4 0x9A6FCBDD EQ PUSH2 0xFD JUMPI DUP1 PUSH4 0x9BE9FDEC EQ PUSH2 0x11B JUMPI DUP1 PUSH4 0xB0E4C85E EQ PUSH2 0x137 JUMPI DUP1 PUSH4 0xFD1EE54C EQ PUSH2 0x155 JUMPI PUSH2 0x7B JUMP JUMPDEST DUP1 PUSH4 0x1F7B6D32 EQ PUSH2 0x7F JUMPI DUP1 PUSH4 0x71E5EE5F EQ PUSH2 0x9D JUMPI DUP1 PUSH4 0x78321EFB EQ PUSH2 0xCD JUMPI JUMPDEST PUSH0 DUP1 REVERT JUMPDEST PUSH2 0x87 PUSH2 0x185 JUMP JUMPDEST PUSH1 0x40 MLOAD PUSH2 0x94 SWAP2 SWAP1 PUSH2 0x2BF JUMP JUMPDEST PUSH1 0x40 MLOAD DUP1 SWAP2 SUB SWAP1 RETURN JUMPDEST PUSH2 0xB7 PUSH1 0x4 DUP1 CALLDATASIZE SUB DUP2 ADD SWAP1 PUSH2 0xB2 SWAP2 SWAP1 PUSH2 0x306 JUMP JUMPDEST PUSH2 0x18D JUMP JUMPDEST PUSH1 0x40 MLOAD PUSH2 0xC4 SWAP2 SWAP1 PUSH2 0x2BF JUMP JUMPDEST PUSH1 0x40 MLOAD DUP1 SWAP2 SUB SWAP1 RETURN JUMPDEST PUSH2 0xE7 PUSH1 0x4 DUP1 CALLDATASIZE SUB DUP2 ADD SWAP1 PUSH2 0xE2 SWAP2 SWAP1 PUSH2 0x306 JUMP JUMPDEST PUSH2 0x1AD JUMP JUMPDEST PUSH1 0x40 MLOAD PUSH2 0xF4 SWAP2 SWAP1 PUSH2 0x2BF JUMP JUMPDEST PUSH1 0x40 MLOAD DUP1 SWAP2 SUB SWAP1 RETURN JUMPDEST PUSH2 0x105 PUSH2 0x1DC JUMP JUMPDEST PUSH1 0x40 MLOAD PUSH2 0x112 SWAP2 SWAP1 PUSH2 0x2BF JUMP JUMPDEST PUSH1 0x40 MLOAD DUP1 SWAP2 SUB SWAP1 RETURN JUMPDEST PUSH2 0x135 PUSH1 0x4 DUP1 CALLDATASIZE SUB DUP2 ADD SWAP1 PUSH2 0x130 SWAP2 SWAP1 PUSH2 0x367 JUMP JUMPDEST PUSH2 0x238 JUMP JUMPDEST STOP JUMPDEST PUSH2 0x13F PUSH2 0x273 JUMP JUMPDEST PUSH1 0x40 MLOAD PUSH2 0x14C SWAP2 SWAP1 PUSH2 0x2BF JUMP JUMPDEST PUSH1 0x40 MLOAD DUP1 SWAP2 SUB SWAP1 RETURN JUMPDEST PUSH2 0x16F PUSH1 0x4 DUP1 CALLDATASIZE SUB DUP2 ADD SWAP1 PUSH2 0x16A SWAP2 SWAP1 PUSH2 0x306 JUMP JUMPDEST PUSH2 0x27F JUMP JUMPDEST PUSH1 0x40 MLOAD PUSH2 0x17C SWAP2 SWAP1 PUSH2 0x3B4 JUMP JUMPDEST PUSH1 0x40 MLOAD DUP1 SWAP2 SUB SWAP1 RETURN JUMPDEST PUSH0 PUSH1 0x5 SWAP1 POP SWAP1 JUMP JUMPDEST PUSH1 0x1 DUP2 DUP2 SLOAD DUP2 LT PUSH2 0x19C JUMPI PUSH0 DUP1 REVERT JUMPDEST SWAP1 PUSH0 MSTORE PUSH1 0x20 PUSH0 KECCAK256 ADD PUSH0 SWAP2 POP SWAP1 POP SLOAD DUP2 JUMP JUMPDEST PUSH0 PUSH1 0x1 DUP3 SWAP1 DUP1 PUSH1 0x1 DUP2 SLOAD ADD DUP1 DUP3 SSTORE DUP1 SWAP2 POP POP PUSH1 0x1 SWAP1 SUB SWAP1 PUSH0 MSTORE PUSH1 0x20 PUSH0 KECCAK256 ADD PUSH0 SWAP1 SWAP2 SWAP1 SWAP2 SWAP1 SWAP2 POP SSTORE DUP2 SWAP1 POP SWAP2 SWAP1 POP JUMP JUMPDEST PUSH0 DUP1 PUSH1 0x1 DUP1 DUP1 DUP1 SLOAD SWAP1 POP PUSH2 0x1F0 SWAP2 SWAP1 PUSH2 0x3FA JUMP JUMPDEST DUP2 SLOAD DUP2 LT PUSH2 0x201 JUMPI PUSH2 0x200 PUSH2 0x42D JUMP JUMPDEST JUMPDEST SWAP1 PUSH0 MSTORE PUSH1 0x20 PUSH0 KECCAK256 ADD SLOAD SWAP1 POP PUSH1 0x1 DUP1 SLOAD DUP1 PUSH2 0x21E JUMPI PUSH2 0x21D PUSH2 0x45A JUMP JUMPDEST JUMPDEST PUSH1 0x1 SWAP1 SUB DUP2 DUP2 SWAP1 PUSH0 MSTORE PUSH1 0x20 PUSH0 KECCAK256 ADD PUSH0 SWAP1 SSTORE SWAP1 SSTORE DUP1 SWAP2 POP POP SWAP1 JUMP JUMPDEST DUP1 PUSH0 DUP4 PUSH1 0xFF AND PUSH1 0x5 DUP2 LT PUSH2 0x24F JUMPI PUSH2 0x24E PUSH2 0x42D JUMP JUMPDEST JUMPDEST PUSH1 0x20 SWAP2 DUP3 DUP3 DIV ADD SWAP2 SWAP1 MOD PUSH2 0x100 EXP DUP2 SLOAD DUP2 PUSH1 0xFF MUL NOT AND SWAP1 DUP4 PUSH1 0xFF AND MUL OR SWAP1 SSTORE POP POP POP JUMP JUMPDEST PUSH0 PUSH1 0x1 DUP1 SLOAD SWAP1 POP SWAP1 POP SWAP1 JUMP JUMPDEST PUSH0 DUP2 PUSH1 0x5 DUP2 LT PUSH2 0x28D JUMPI PUSH0 DUP1 REVERT JUMPDEST PUSH1 0x20 SWAP2 DUP3 DUP3 DIV ADD SWAP2 SWAP1 MOD SWAP2 POP SLOAD SWAP1 PUSH2 0x100 EXP SWAP1 DIV PUSH1 0xFF AND DUP2 JUMP JUMPDEST PUSH0 DUP2 SWAP1 POP SWAP2 SWAP1 POP JUMP JUMPDEST PUSH2 0x2B9 DUP2 PUSH2 0x2A7 JUMP JUMPDEST DUP3 MSTORE POP POP JUMP JUMPDEST PUSH0 PUSH1 0x20 DUP3 ADD SWAP1 POP PUSH2 0x2D2 PUSH0 DUP4 ADD DUP5 PUSH2 0x2B0 JUMP JUMPDEST SWAP3 SWAP2 POP POP JUMP JUMPDEST PUSH0 DUP1 REVERT JUMPDEST PUSH2 0x2E5 DUP2 PUSH2 0x2A7 JUMP JUMPDEST DUP2 EQ PUSH2 0x2EF JUMPI PUSH0 DUP1 REVERT JUMPDEST POP JUMP JUMPDEST PUSH0 DUP2 CALLDATALOAD SWAP1 POP PUSH2 0x300 DUP2 PUSH2 0x2DC JUMP JUMPDEST SWAP3 SWAP2 POP POP JUMP JUMPDEST PUSH0 PUSH1 0x20 DUP3 DUP5 SUB SLT ISZERO PUSH2 0x31B JUMPI PUSH2 0x31A PUSH2 0x2D8 JUMP JUMPDEST JUMPDEST PUSH0 PUSH2 0x328 DUP5 DUP3 DUP6 ADD PUSH2 0x2F2 JUMP JUMPDEST SWAP2 POP POP SWAP3 SWAP2 POP POP JUMP JUMPDEST PUSH0 PUSH1 0xFF DUP3 AND SWAP1 POP SWAP2 SWAP1 POP JUMP JUMPDEST PUSH2 0x346 DUP2 PUSH2 0x331 JUMP JUMPDEST DUP2 EQ PUSH2 0x350 JUMPI PUSH0 DUP1 REVERT JUMPDEST POP JUMP JUMPDEST PUSH0 DUP2 CALLDATALOAD SWAP1 POP PUSH2 0x361 DUP2 PUSH2 0x33D JUMP JUMPDEST SWAP3 SWAP2 POP POP JUMP JUMPDEST PUSH0 DUP1 PUSH1 0x40 DUP4 DUP6 SUB SLT ISZERO PUSH2 0x37D JUMPI PUSH2 0x37C PUSH2 0x2D8 JUMP JUMPDEST JUMPDEST PUSH0 PUSH2 0x38A DUP6 DUP3 DUP7 ADD PUSH2 0x353 JUMP JUMPDEST SWAP3 POP POP PUSH1 0x20 PUSH2 0x39B DUP6 DUP3 DUP7 ADD PUSH2 0x353 JUMP JUMPDEST SWAP2 POP POP SWAP3 POP SWAP3 SWAP1 POP JUMP JUMPDEST PUSH2 0x3AE DUP2 PUSH2 0x331 JUMP JUMPDEST DUP3 MSTORE POP POP JUMP JUMPDEST PUSH0 PUSH1 0x20 DUP3 ADD SWAP1 POP PUSH2 0x3C7 PUSH0 DUP4 ADD DUP5 PUSH2 0x3A5 JUMP JUMPDEST SWAP3 SWAP2 POP POP JUMP JUMPDEST PUSH32 0x4E487B7100000000000000000000000000000000000000000000000000000000 PUSH0 MSTORE PUSH1 0x11 PUSH1 0x4 MSTORE PUSH1 0x24 PUSH0 REVERT JUMPDEST PUSH0 PUSH2 0x404 DUP3 PUSH2 0x2A7 JUMP JUMPDEST SWAP2 POP PUSH2 0x40F DUP4 PUSH2 0x2A7 JUMP JUMPDEST SWAP3 POP DUP3 DUP3 SUB SWAP1 POP DUP2 DUP2 GT ISZERO PUSH2 0x427 JUMPI PUSH2 0x426 PUSH2 0x3CD JUMP JUMPDEST JUMPDEST SWAP3 SWAP2 POP POP JUMP JUMPDEST PUSH32 0x4E487B7100000000000000000000000000000000000000000000000000000000 PUSH0 MSTORE PUSH1 0x32 PUSH1 0x4 MSTORE PUSH1 0x24 PUSH0 REVERT JUMPDEST PUSH32 0x4E487B7100000000000000000000000000000000000000000000000000000000 PUSH0 MSTORE PUSH1 0x31 PUSH1 0x4 MSTORE PUSH1 0x24 PUSH0 REVERT INVALID LOG2 PUSH5 0x6970667358 0x22 SLT KECCAK256 0xFC DUP8 SMOD SIGNEXTEND SUB DUP11 GASLIMIT SWAP9 SMOD SWAP2 MSIZE 0xE SGT EXTCODESIZE DUP16 MSTORE BASEFEE 0xD7 PUSH27 0xBFCA49E102323A2DB77D034C9864736F6C634300081A0033000000 "
				},
				"gasEstimates": {
					"creation": {
						"codeDepositCost": "242600",
						"executionCost": "infinite",
						"totalCost": "infinite"
					},
					"external": {
						"arr(uint256)": "infinite",
						"length()": "333",
						"lengthArr()": "2484",
						"nums(uint256)": "4444",
						"popElement()": "infinite",
						"pushElement(uint256)": "infinite",
						"setValue(uint8,uint8)": "infinite"
					}
				},
				"methodIdentifiers": {
					"arr(uint256)": "71e5ee5f",
					"length()": "1f7b6d32",
					"lengthArr()": "b0e4c85e",
					"nums(uint256)": "fd1ee54c",
					"popElement()": "9a6fcbdd",
					"pushElement(uint256)": "78321efb",
					"setValue(uint8,uint8)": "9be9fdec"
				}
			},
			"storageLayout": {
				"storage": [
					{
						"astId": 10,
						"contract": "contracts/learnings/arrays.sol:Array",
						"label": "nums",
						"offset": 0,
						"slot": "0",
						"type": "t_array(t_uint8)5_storage"
					},
					{
						"astId": 36,
						"contract": "contracts/learnings/arrays.sol:Array",
						"label": "arr",
						"offset": 0,
						"slot": "1",
						"type": "t_array(t_uint256)dyn_storage"
					}
				],
				"types": {
					"t_array(t_uint256)dyn_storage": {
						"base": "t_uint256",
						"encoding": "dynamic_array",
						"label": "uint256[]",
						"numberOfBytes": "32"
					},
					"t_array(t_uint8)5_storage": {
						"base": "t_uint8",
						"encoding": "inplace",
						"label": "uint8[5]",
						"numberOfBytes": "32"
					},
					"t_uint256": {
						"encoding": "inplace",
						"label": "uint256",
						"numberOfBytes": "32"
					},
					"t_uint8": {
						"encoding": "inplace",
						"label": "uint8",
						"numberOfBytes": "1"
					}
				}
			},
			"userdoc": {
				"kind": "user",
				"methods": {},
				"version": 1
			}
		}
	}
}