{
	"contracts/learnings/bytesArray.sol": {
		"bytesArray": {
			"abi": [
				{
					"inputs": [],
					"name": "b",
					"outputs": [
						{
							"internalType": "bytes",
							"name": "",
							"type": "bytes"
						}
					],
					"stateMutability": "view",
					"type": "function"
				},
				{
					"inputs": [],
					"name": "length",
					"outputs": [
						{
							"internalType": "uint256",
							"name": "",
							"type": "uint256"
						}
					],
					"stateMutability": "view",
					"type": "function"
				},
				{
					"inputs": [],
					"name": "push",
					"outputs": [],
					"stateMutability": "nonpayable",
					"type": "function"
				},
				{
					"inputs": [
						{
							"internalType": "uint256",
							"name": "i",
							"type": "uint256"
						}
					],
					"name": "set",
					"outputs": [
						{
							"internalType": "bytes1",
							"name": "",
							"type": "bytes1"
						}
					],
					"stateMutability": "view",
					"type": "function"
				}
			],
			"devdoc": {
				"kind": "dev",
				"methods": {},
				"version": 1
			},
			"evm": {
				"assembly": "    /* \"contracts/learnings/bytesArray.sol\":57:333  contract bytesArray {... */\n  mstore(0x40, 0x80)\n    /* \"contracts/learnings/bytesArray.sol\":83:105  bytes public b = \"abc\" */\n  mload(0x40)\n  dup1\n  0x40\n  add\n  0x40\n  mstore\n  dup1\n  0x03\n  dup2\n  mstore\n  0x20\n  add\n  0x6162630000000000000000000000000000000000000000000000000000000000\n  dup2\n  mstore\n  pop\n  0x00\n  swap1\n  dup2\n  tag_1\n  swap2\n  swap1\n  tag_2\n  jump\t// in\ntag_1:\n  pop\n    /* \"contracts/learnings/bytesArray.sol\":57:333  contract bytesArray {... */\n  callvalue\n  dup1\n  iszero\n  tag_3\n  jumpi\n  0x00\n  dup1\n  revert\ntag_3:\n  pop\n  jump(tag_4)\n    /* \"#utility.yul\":7:106   */\ntag_5:\n    /* \"#utility.yul\":59:65   */\n  0x00\n    /* \"#utility.yul\":93:98   */\n  dup2\n    /* \"#utility.yul\":87:99   */\n  mload\n    /* \"#utility.yul\":77:99   */\n  swap1\n  pop\n    /* \"#utility.yul\":7:106   */\n  swap2\n  swap1\n  pop\n  jump\t// out\n    /* \"#utility.yul\":112:292   */\ntag_6:\n    /* \"#utility.yul\":160:237   */\n  0x4e487b7100000000000000000000000000000000000000000000000000000000\n    /* \"#utility.yul\":157:158   */\n  0x00\n    /* \"#utility.yul\":150:238   */\n  mstore\n    /* \"#utility.yul\":257:261   */\n  0x41\n    /* \"#utility.yul\":254:255   */\n  0x04\n    /* \"#utility.yul\":247:262   */\n  mstore\n    /* \"#utility.yul\":281:285   */\n  0x24\n    /* \"#utility.yul\":278:279   */\n  0x00\n    /* \"#utility.yul\":271:286   */\n  revert\n    /* \"#utility.yul\":298:478   */\ntag_7:\n    /* \"#utility.yul\":346:423   */\n  0x4e487b7100000000000000000000000000000000000000000000000000000000\n    /* \"#utility.yul\":343:344   */\n  0x00\n    /* \"#utility.yul\":336:424   */\n  mstore\n    /* \"#utility.yul\":443:447   */\n  0x22\n    /* \"#utility.yul\":440:441   */\n  0x04\n    /* \"#utility.yul\":433:448   */\n  mstore\n    /* \"#utility.yul\":467:471   */\n  0x24\n    /* \"#utility.yul\":464:465   */\n  0x00\n    /* \"#utility.yul\":457:472   */\n  revert\n    /* \"#utility.yul\":484:804   */\ntag_8:\n    /* \"#utility.yul\":528:534   */\n  0x00\n    /* \"#utility.yul\":565:566   */\n  0x02\n    /* \"#utility.yul\":559:563   */\n  dup3\n    /* \"#utility.yul\":555:567   */\n  div\n    /* \"#utility.yul\":545:567   */\n  swap1\n  pop\n    /* \"#utility.yul\":612:613   */\n  0x01\n    /* \"#utility.yul\":606:610   */\n  dup3\n    /* \"#utility.yul\":602:614   */\n  and\n    /* \"#utility.yul\":633:651   */\n  dup1\n    /* \"#utility.yul\":623:704   */\n  tag_30\n  jumpi\n    /* \"#utility.yul\":689:693   */\n  0x7f\n    /* \"#utility.yul\":681:687   */\n  dup3\n    /* \"#utility.yul\":677:694   */\n  and\n    /* \"#utility.yul\":667:694   */\n  swap2\n  pop\n    /* \"#utility.yul\":623:704   */\ntag_30:\n    /* \"#utility.yul\":751:753   */\n  0x20\n    /* \"#utility.yul\":743:749   */\n  dup3\n    /* \"#utility.yul\":740:754   */\n  lt\n    /* \"#utility.yul\":720:738   */\n  dup2\n    /* \"#utility.yul\":717:755   */\n  sub\n    /* \"#utility.yul\":714:798   */\n  tag_31\n  jumpi\n    /* \"#utility.yul\":770:788   */\n  tag_32\n  tag_7\n  jump\t// in\ntag_32:\n    /* \"#utility.yul\":714:798   */\ntag_31:\n    /* \"#utility.yul\":535:804   */\n  pop\n    /* \"#utility.yul\":484:804   */\n  swap2\n  swap1\n  pop\n  jump\t// out\n    /* \"#utility.yul\":810:950   */\ntag_9:\n    /* \"#utility.yul\":858:862   */\n  0x00\n    /* \"#utility.yul\":881:884   */\n  dup2\n    /* \"#utility.yul\":873:884   */\n  swap1\n  pop\n    /* \"#utility.yul\":904:907   */\n  dup2\n    /* \"#utility.yul\":901:902   */\n  0x00\n    /* \"#utility.yul\":894:908   */\n  mstore\n    /* \"#utility.yul\":938:942   */\n  0x20\n    /* \"#utility.yul\":935:936   */\n  0x00\n    /* \"#utility.yul\":925:943   */\n  keccak256\n    /* \"#utility.yul\":917:943   */\n  swap1\n  pop\n    /* \"#utility.yul\":810:950   */\n  swap2\n  swap1\n  pop\n  jump\t// out\n    /* \"#utility.yul\":956:1049   */\ntag_10:\n    /* \"#utility.yul\":993:999   */\n  0x00\n    /* \"#utility.yul\":1040:1042   */\n  0x20\n    /* \"#utility.yul\":1035:1037   */\n  0x1f\n    /* \"#utility.yul\":1028:1033   */\n  dup4\n    /* \"#utility.yul\":1024:1038   */\n  add\n    /* \"#utility.yul\":1020:1043   */\n  div\n    /* \"#utility.yul\":1010:1043   */\n  swap1\n  pop\n    /* \"#utility.yul\":956:1049   */\n  swap2\n  swap1\n  pop\n  jump\t// out\n    /* \"#utility.yul\":1055:1162   */\ntag_11:\n    /* \"#utility.yul\":1099:1107   */\n  0x00\n    /* \"#utility.yul\":1149:1154   */\n  dup3\n    /* \"#utility.yul\":1143:1147   */\n  dup3\n    /* \"#utility.yul\":1139:1155   */\n  shl\n    /* \"#utility.yul\":1118:1155   */\n  swap1\n  pop\n    /* \"#utility.yul\":1055:1162   */\n  swap3\n  swap2\n  pop\n  pop\n  jump\t// out\n    /* \"#utility.yul\":1168:1561   */\ntag_12:\n    /* \"#utility.yul\":1237:1243   */\n  0x00\n    /* \"#utility.yul\":1287:1288   */\n  0x08\n    /* \"#utility.yul\":1275:1285   */\n  dup4\n    /* \"#utility.yul\":1271:1289   */\n  mul\n    /* \"#utility.yul\":1310:1407   */\n  tag_37\n    /* \"#utility.yul\":1340:1406   */\n  0xffffffffffffffffffffffffffffffffffffffffffffffffffffffffffffffff\n    /* \"#utility.yul\":1329:1338   */\n  dup3\n    /* \"#utility.yul\":1310:1407   */\n  tag_11\n  jump\t// in\ntag_37:\n    /* \"#utility.yul\":1428:1467   */\n  tag_38\n    /* \"#utility.yul\":1458:1466   */\n  dup7\n    /* \"#utility.yul\":1447:1456   */\n  dup4\n    /* \"#utility.yul\":1428:1467   */\n  tag_11\n  jump\t// in\ntag_38:\n    /* \"#utility.yul\":1416:1467   */\n  swap6\n  pop\n    /* \"#utility.yul\":1500:1504   */\n  dup1\n    /* \"#utility.yul\":1496:1505   */\n  not\n    /* \"#utility.yul\":1489:1494   */\n  dup5\n    /* \"#utility.yul\":1485:1506   */\n  and\n    /* \"#utility.yul\":1476:1506   */\n  swap4\n  pop\n    /* \"#utility.yul\":1549:1553   */\n  dup1\n    /* \"#utility.yul\":1539:1547   */\n  dup7\n    /* \"#utility.yul\":1535:1554   */\n  and\n    /* \"#utility.yul\":1528:1533   */\n  dup5\n    /* \"#utility.yul\":1525:1555   */\n  or\n    /* \"#utility.yul\":1515:1555   */\n  swap3\n  pop\n    /* \"#utility.yul\":1244:1561   */\n  pop\n  pop\n    /* \"#utility.yul\":1168:1561   */\n  swap4\n  swap3\n  pop\n  pop\n  pop\n  jump\t// out\n    /* \"#utility.yul\":1567:1644   */\ntag_13:\n    /* \"#utility.yul\":1604:1611   */\n  0x00\n    /* \"#utility.yul\":1633:1638   */\n  dup2\n    /* \"#utility.yul\":1622:1638   */\n  swap1\n  pop\n    /* \"#utility.yul\":1567:1644   */\n  swap2\n  swap1\n  pop\n  jump\t// out\n    /* \"#utility.yul\":1650:1710   */\ntag_14:\n    /* \"#utility.yul\":1678:1681   */\n  0x00\n    /* \"#utility.yul\":1699:1704   */\n  dup2\n    /* \"#utility.yul\":1692:1704   */\n  swap1\n  pop\n    /* \"#utility.yul\":1650:1710   */\n  swap2\n  swap1\n  pop\n  jump\t// out\n    /* \"#utility.yul\":1716:1858   */\ntag_15:\n    /* \"#utility.yul\":1766:1775   */\n  0x00\n    /* \"#utility.yul\":1799:1852   */\n  tag_42\n    /* \"#utility.yul\":1817:1851   */\n  tag_43\n    /* \"#utility.yul\":1826:1850   */\n  tag_44\n    /* \"#utility.yul\":1844:1849   */\n  dup5\n    /* \"#utility.yul\":1826:1850   */\n  tag_13\n  jump\t// in\ntag_44:\n    /* \"#utility.yul\":1817:1851   */\n  tag_14\n  jump\t// in\ntag_43:\n    /* \"#utility.yul\":1799:1852   */\n  tag_13\n  jump\t// in\ntag_42:\n    /* \"#utility.yul\":1786:1852   */\n  swap1\n  pop\n    /* \"#utility.yul\":1716:1858   */\n  swap2\n  swap1\n  pop\n  jump\t// out\n    /* \"#utility.yul\":1864:1939   */\ntag_16:\n    /* \"#utility.yul\":1907:1910   */\n  0x00\n    /* \"#utility.yul\":1928:1933   */\n  dup2\n    /* \"#utility.yul\":1921:1933   */\n  swap1\n  pop\n    /* \"#utility.yul\":1864:1939   */\n  swap2\n  swap1\n  pop\n  jump\t// out\n    /* \"#utility.yul\":1945:2214   */\ntag_17:\n    /* \"#utility.yul\":2055:2094   */\n  tag_47\n    /* \"#utility.yul\":2086:2093   */\n  dup4\n    /* \"#utility.yul\":2055:2094   */\n  tag_15\n  jump\t// in\ntag_47:\n    /* \"#utility.yul\":2116:2207   */\n  tag_48\n    /* \"#utility.yul\":2165:2206   */\n  tag_49\n    /* \"#utility.yul\":2189:2205   */\n  dup3\n    /* \"#utility.yul\":2165:2206   */\n  tag_16\n  jump\t// in\ntag_49:\n    /* \"#utility.yul\":2157:2163   */\n  dup5\n    /* \"#utility.yul\":2150:2154   */\n  dup5\n    /* \"#utility.yul\":2144:2155   */\n  sload\n    /* \"#utility.yul\":2116:2207   */\n  tag_12\n  jump\t// in\ntag_48:\n    /* \"#utility.yul\":2110:2114   */\n  dup3\n    /* \"#utility.yul\":2103:2208   */\n  sstore\n    /* \"#utility.yul\":2021:2214   */\n  pop\n    /* \"#utility.yul\":1945:2214   */\n  pop\n  pop\n  pop\n  jump\t// out\n    /* \"#utility.yul\":2220:2293   */\ntag_18:\n    /* \"#utility.yul\":2265:2268   */\n  0x00\n    /* \"#utility.yul\":2220:2293   */\n  swap1\n  jump\t// out\n    /* \"#utility.yul\":2299:2488   */\ntag_19:\n    /* \"#utility.yul\":2376:2408   */\n  tag_52\n  tag_18\n  jump\t// in\ntag_52:\n    /* \"#utility.yul\":2417:2482   */\n  tag_53\n    /* \"#utility.yul\":2475:2481   */\n  dup2\n    /* \"#utility.yul\":2467:2473   */\n  dup5\n    /* \"#utility.yul\":2461:2465   */\n  dup5\n    /* \"#utility.yul\":2417:2482   */\n  tag_17\n  jump\t// in\ntag_53:\n    /* \"#utility.yul\":2352:2488   */\n  pop\n    /* \"#utility.yul\":2299:2488   */\n  pop\n  pop\n  jump\t// out\n    /* \"#utility.yul\":2494:2680   */\ntag_20:\n    /* \"#utility.yul\":2554:2674   */\ntag_55:\n    /* \"#utility.yul\":2571:2574   */\n  dup2\n    /* \"#utility.yul\":2564:2569   */\n  dup2\n    /* \"#utility.yul\":2561:2575   */\n  lt\n    /* \"#utility.yul\":2554:2674   */\n  iszero\n  tag_57\n  jumpi\n    /* \"#utility.yul\":2625:2664   */\n  tag_58\n    /* \"#utility.yul\":2662:2663   */\n  0x00\n    /* \"#utility.yul\":2655:2660   */\n  dup3\n    /* \"#utility.yul\":2625:2664   */\n  tag_19\n  jump\t// in\ntag_58:\n    /* \"#utility.yul\":2598:2599   */\n  0x01\n    /* \"#utility.yul\":2591:2596   */\n  dup2\n    /* \"#utility.yul\":2587:2600   */\n  add\n    /* \"#utility.yul\":2578:2600   */\n  swap1\n  pop\n    /* \"#utility.yul\":2554:2674   */\n  jump(tag_55)\ntag_57:\n    /* \"#utility.yul\":2494:2680   */\n  pop\n  pop\n  jump\t// out\n    /* \"#utility.yul\":2686:3227   */\ntag_21:\n    /* \"#utility.yul\":2786:2788   */\n  0x1f\n    /* \"#utility.yul\":2781:2784   */\n  dup3\n    /* \"#utility.yul\":2778:2789   */\n  gt\n    /* \"#utility.yul\":2775:3220   */\n  iszero\n  tag_60\n  jumpi\n    /* \"#utility.yul\":2820:2857   */\n  tag_61\n    /* \"#utility.yul\":2851:2856   */\n  dup2\n    /* \"#utility.yul\":2820:2857   */\n  tag_9\n  jump\t// in\ntag_61:\n    /* \"#utility.yul\":2903:2932   */\n  tag_62\n    /* \"#utility.yul\":2921:2931   */\n  dup5\n    /* \"#utility.yul\":2903:2932   */\n  tag_10\n  jump\t// in\ntag_62:\n    /* \"#utility.yul\":2893:2901   */\n  dup2\n    /* \"#utility.yul\":2889:2933   */\n  add\n    /* \"#utility.yul\":3086:3088   */\n  0x20\n    /* \"#utility.yul\":3074:3084   */\n  dup6\n    /* \"#utility.yul\":3071:3089   */\n  lt\n    /* \"#utility.yul\":3068:3117   */\n  iszero\n  tag_63\n  jumpi\n    /* \"#utility.yul\":3107:3115   */\n  dup2\n    /* \"#utility.yul\":3092:3115   */\n  swap1\n  pop\n    /* \"#utility.yul\":3068:3117   */\ntag_63:\n    /* \"#utility.yul\":3130:3210   */\n  tag_64\n    /* \"#utility.yul\":3186:3208   */\n  tag_65\n    /* \"#utility.yul\":3204:3207   */\n  dup6\n    /* \"#utility.yul\":3186:3208   */\n  tag_10\n  jump\t// in\ntag_65:\n    /* \"#utility.yul\":3176:3184   */\n  dup4\n    /* \"#utility.yul\":3172:3209   */\n  add\n    /* \"#utility.yul\":3159:3170   */\n  dup3\n    /* \"#utility.yul\":3130:3210   */\n  tag_20\n  jump\t// in\ntag_64:\n    /* \"#utility.yul\":2790:3220   */\n  pop\n  pop\n    /* \"#utility.yul\":2775:3220   */\ntag_60:\n    /* \"#utility.yul\":2686:3227   */\n  pop\n  pop\n  pop\n  jump\t// out\n    /* \"#utility.yul\":3233:3350   */\ntag_22:\n    /* \"#utility.yul\":3287:3295   */\n  0x00\n    /* \"#utility.yul\":3337:3342   */\n  dup3\n    /* \"#utility.yul\":3331:3335   */\n  dup3\n    /* \"#utility.yul\":3327:3343   */\n  shr\n    /* \"#utility.yul\":3306:3343   */\n  swap1\n  pop\n    /* \"#utility.yul\":3233:3350   */\n  swap3\n  swap2\n  pop\n  pop\n  jump\t// out\n    /* \"#utility.yul\":3356:3525   */\ntag_23:\n    /* \"#utility.yul\":3400:3406   */\n  0x00\n    /* \"#utility.yul\":3433:3484   */\n  tag_68\n    /* \"#utility.yul\":3481:3482   */\n  0x00\n    /* \"#utility.yul\":3477:3483   */\n  not\n    /* \"#utility.yul\":3469:3474   */\n  dup5\n    /* \"#utility.yul\":3466:3467   */\n  0x08\n    /* \"#utility.yul\":3462:3475   */\n  mul\n    /* \"#utility.yul\":3433:3484   */\n  tag_22\n  jump\t// in\ntag_68:\n    /* \"#utility.yul\":3429:3485   */\n  not\n    /* \"#utility.yul\":3514:3518   */\n  dup1\n    /* \"#utility.yul\":3508:3512   */\n  dup4\n    /* \"#utility.yul\":3504:3519   */\n  and\n    /* \"#utility.yul\":3494:3519   */\n  swap2\n  pop\n    /* \"#utility.yul\":3407:3525   */\n  pop\n    /* \"#utility.yul\":3356:3525   */\n  swap3\n  swap2\n  pop\n  pop\n  jump\t// out\n    /* \"#utility.yul\":3530:3825   */\ntag_24:\n    /* \"#utility.yul\":3606:3610   */\n  0x00\n    /* \"#utility.yul\":3752:3781   */\n  tag_70\n    /* \"#utility.yul\":3777:3780   */\n  dup4\n    /* \"#utility.yul\":3771:3775   */\n  dup4\n    /* \"#utility.yul\":3752:3781   */\n  tag_23\n  jump\t// in\ntag_70:\n    /* \"#utility.yul\":3744:3781   */\n  swap2\n  pop\n    /* \"#utility.yul\":3814:3817   */\n  dup3\n    /* \"#utility.yul\":3811:3812   */\n  0x02\n    /* \"#utility.yul\":3807:3818   */\n  mul\n    /* \"#utility.yul\":3801:3805   */\n  dup3\n    /* \"#utility.yul\":3798:3819   */\n  or\n    /* \"#utility.yul\":3790:3819   */\n  swap1\n  pop\n    /* \"#utility.yul\":3530:3825   */\n  swap3\n  swap2\n  pop\n  pop\n  jump\t// out\n    /* \"#utility.yul\":3830:5222   */\ntag_2:\n    /* \"#utility.yul\":3946:3983   */\n  tag_72\n    /* \"#utility.yul\":3979:3982   */\n  dup3\n    /* \"#utility.yul\":3946:3983   */\n  tag_5\n  jump\t// in\ntag_72:\n    /* \"#utility.yul\":4048:4066   */\n  0xffffffffffffffff\n    /* \"#utility.yul\":4040:4046   */\n  dup2\n    /* \"#utility.yul\":4037:4067   */\n  gt\n    /* \"#utility.yul\":4034:4090   */\n  iszero\n  tag_73\n  jumpi\n    /* \"#utility.yul\":4070:4088   */\n  tag_74\n  tag_6\n  jump\t// in\ntag_74:\n    /* \"#utility.yul\":4034:4090   */\ntag_73:\n    /* \"#utility.yul\":4114:4152   */\n  tag_75\n    /* \"#utility.yul\":4146:4150   */\n  dup3\n    /* \"#utility.yul\":4140:4151   */\n  sload\n    /* \"#utility.yul\":4114:4152   */\n  tag_8\n  jump\t// in\ntag_75:\n    /* \"#utility.yul\":4199:4265   */\n  tag_76\n    /* \"#utility.yul\":4258:4264   */\n  dup3\n    /* \"#utility.yul\":4250:4256   */\n  dup3\n    /* \"#utility.yul\":4244:4248   */\n  dup6\n    /* \"#utility.yul\":4199:4265   */\n  tag_21\n  jump\t// in\ntag_76:\n    /* \"#utility.yul\":4292:4293   */\n  0x00\n    /* \"#utility.yul\":4316:4320   */\n  0x20\n    /* \"#utility.yul\":4303:4320   */\n  swap1\n  pop\n    /* \"#utility.yul\":4348:4350   */\n  0x1f\n    /* \"#utility.yul\":4340:4346   */\n  dup4\n    /* \"#utility.yul\":4337:4351   */\n  gt\n    /* \"#utility.yul\":4365:4366   */\n  0x01\n    /* \"#utility.yul\":4360:4977   */\n  dup2\n  eq\n  tag_78\n  jumpi\n    /* \"#utility.yul\":5021:5022   */\n  0x00\n    /* \"#utility.yul\":5038:5044   */\n  dup5\n    /* \"#utility.yul\":5035:5112   */\n  iszero\n  tag_79\n  jumpi\n    /* \"#utility.yul\":5087:5096   */\n  dup3\n    /* \"#utility.yul\":5082:5085   */\n  dup8\n    /* \"#utility.yul\":5078:5097   */\n  add\n    /* \"#utility.yul\":5072:5098   */\n  mload\n    /* \"#utility.yul\":5063:5098   */\n  swap1\n  pop\n    /* \"#utility.yul\":5035:5112   */\ntag_79:\n    /* \"#utility.yul\":5138:5205   */\n  tag_80\n    /* \"#utility.yul\":5198:5204   */\n  dup6\n    /* \"#utility.yul\":5191:5196   */\n  dup3\n    /* \"#utility.yul\":5138:5205   */\n  tag_24\n  jump\t// in\ntag_80:\n    /* \"#utility.yul\":5132:5136   */\n  dup7\n    /* \"#utility.yul\":5125:5206   */\n  sstore\n    /* \"#utility.yul\":4994:5216   */\n  pop\n    /* \"#utility.yul\":4330:5216   */\n  jump(tag_77)\n    /* \"#utility.yul\":4360:4977   */\ntag_78:\n    /* \"#utility.yul\":4412:4416   */\n  0x1f\n    /* \"#utility.yul\":4408:4417   */\n  not\n    /* \"#utility.yul\":4400:4406   */\n  dup5\n    /* \"#utility.yul\":4396:4418   */\n  and\n    /* \"#utility.yul\":4446:4482   */\n  tag_81\n    /* \"#utility.yul\":4477:4481   */\n  dup7\n    /* \"#utility.yul\":4446:4482   */\n  tag_9\n  jump\t// in\ntag_81:\n    /* \"#utility.yul\":4504:4505   */\n  0x00\n    /* \"#utility.yul\":4518:4726   */\ntag_82:\n    /* \"#utility.yul\":4532:4539   */\n  dup3\n    /* \"#utility.yul\":4529:4530   */\n  dup2\n    /* \"#utility.yul\":4526:4540   */\n  lt\n    /* \"#utility.yul\":4518:4726   */\n  iszero\n  tag_84\n  jumpi\n    /* \"#utility.yul\":4611:4620   */\n  dup5\n    /* \"#utility.yul\":4606:4609   */\n  dup10\n    /* \"#utility.yul\":4602:4621   */\n  add\n    /* \"#utility.yul\":4596:4622   */\n  mload\n    /* \"#utility.yul\":4588:4594   */\n  dup3\n    /* \"#utility.yul\":4581:4623   */\n  sstore\n    /* \"#utility.yul\":4662:4663   */\n  0x01\n    /* \"#utility.yul\":4654:4660   */\n  dup3\n    /* \"#utility.yul\":4650:4664   */\n  add\n    /* \"#utility.yul\":4640:4664   */\n  swap2\n  pop\n    /* \"#utility.yul\":4709:4711   */\n  0x20\n    /* \"#utility.yul\":4698:4707   */\n  dup6\n    /* \"#utility.yul\":4694:4712   */\n  add\n    /* \"#utility.yul\":4681:4712   */\n  swap5\n  pop\n    /* \"#utility.yul\":4555:4559   */\n  0x20\n    /* \"#utility.yul\":4552:4553   */\n  dup2\n    /* \"#utility.yul\":4548:4560   */\n  add\n    /* \"#utility.yul\":4543:4560   */\n  swap1\n  pop\n    /* \"#utility.yul\":4518:4726   */\n  jump(tag_82)\ntag_84:\n    /* \"#utility.yul\":4754:4760   */\n  dup7\n    /* \"#utility.yul\":4745:4752   */\n  dup4\n    /* \"#utility.yul\":4742:4761   */\n  lt\n    /* \"#utility.yul\":4739:4918   */\n  iszero\n  tag_85\n  jumpi\n    /* \"#utility.yul\":4812:4821   */\n  dup5\n    /* \"#utility.yul\":4807:4810   */\n  dup10\n    /* \"#utility.yul\":4803:4822   */\n  add\n    /* \"#utility.yul\":4797:4823   */\n  mload\n    /* \"#utility.yul\":4855:4903   */\n  tag_86\n    /* \"#utility.yul\":4897:4901   */\n  0x1f\n    /* \"#utility.yul\":4889:4895   */\n  dup10\n    /* \"#utility.yul\":4885:4902   */\n  and\n    /* \"#utility.yul\":4874:4883   */\n  dup3\n    /* \"#utility.yul\":4855:4903   */\n  tag_23\n  jump\t// in\ntag_86:\n    /* \"#utility.yul\":4847:4853   */\n  dup4\n    /* \"#utility.yul\":4840:4904   */\n  sstore\n    /* \"#utility.yul\":4762:4918   */\n  pop\n    /* \"#utility.yul\":4739:4918   */\ntag_85:\n    /* \"#utility.yul\":4964:4965   */\n  0x01\n    /* \"#utility.yul\":4960:4961   */\n  0x02\n    /* \"#utility.yul\":4952:4958   */\n  dup9\n    /* \"#utility.yul\":4948:4962   */\n  mul\n    /* \"#utility.yul\":4944:4966   */\n  add\n    /* \"#utility.yul\":4938:4942   */\n  dup9\n    /* \"#utility.yul\":4931:4967   */\n  sstore\n    /* \"#utility.yul\":4367:4977   */\n  pop\n  pop\n  pop\n    /* \"#utility.yul\":4330:5216   */\ntag_77:\n  pop\n    /* \"#utility.yul\":3921:5222   */\n  pop\n  pop\n  pop\n    /* \"#utility.yul\":3830:5222   */\n  pop\n  pop\n  jump\t// out\n    /* \"contracts/learnings/bytesArray.sol\":57:333  contract bytesArray {... */\ntag_4:\n  dataSize(sub_0)\n  dup1\n  dataOffset(sub_0)\n  0x00\n  codecopy\n  0x00\n  return\nstop\n\nsub_0: assembly {\n        /* \"contracts/learnings/bytesArray.sol\":57:333  contract bytesArray {... */\n      mstore(0x40, 0x80)\n      callvalue\n      dup1\n      iszero\n      tag_1\n      jumpi\n      0x00\n      dup1\n      revert\n    tag_1:\n      pop\n      jumpi(tag_2, lt(calldatasize, 0x04))\n      shr(0xe0, calldataload(0x00))\n      dup1\n      0x1f7b6d32\n      eq\n      tag_3\n      jumpi\n      dup1\n      0x4df7e3d0\n      eq\n      tag_4\n      jumpi\n      dup1\n      0x60fe47b1\n      eq\n      tag_5\n      jumpi\n      dup1\n      0x8035f0ce\n      eq\n      tag_6\n      jumpi\n    tag_2:\n      0x00\n      dup1\n      revert\n        /* \"contracts/learnings/bytesArray.sol\":112:189  function length() public view returns (uint) {... */\n    tag_3:\n      tag_7\n      tag_8\n      jump\t// in\n    tag_7:\n      mload(0x40)\n      tag_9\n      swap2\n      swap1\n      tag_10\n      jump\t// in\n    tag_9:\n      mload(0x40)\n      dup1\n      swap2\n      sub\n      swap1\n      return\n        /* \"contracts/learnings/bytesArray.sol\":83:105  bytes public b = \"abc\" */\n    tag_4:\n      tag_11\n      tag_12\n      jump\t// in\n    tag_11:\n      mload(0x40)\n      tag_13\n      swap2\n      swap1\n      tag_14\n      jump\t// in\n    tag_13:\n      mload(0x40)\n      dup1\n      swap2\n      sub\n      swap1\n      return\n        /* \"contracts/learnings/bytesArray.sol\":252:330  function set(uint i) public view returns (bytes1) {... */\n    tag_5:\n      tag_15\n      0x04\n      dup1\n      calldatasize\n      sub\n      dup2\n      add\n      swap1\n      tag_16\n      swap2\n      swap1\n      tag_17\n      jump\t// in\n    tag_16:\n      tag_18\n      jump\t// in\n    tag_15:\n      mload(0x40)\n      tag_19\n      swap2\n      swap1\n      tag_20\n      jump\t// in\n    tag_19:\n      mload(0x40)\n      dup1\n      swap2\n      sub\n      swap1\n      return\n        /* \"contracts/learnings/bytesArray.sol\":195:246  function push() public {... */\n    tag_6:\n      tag_21\n      tag_22\n      jump\t// in\n    tag_21:\n      stop\n        /* \"contracts/learnings/bytesArray.sol\":112:189  function length() public view returns (uint) {... */\n    tag_8:\n        /* \"contracts/learnings/bytesArray.sol\":151:155  uint */\n      0x00\n        /* \"contracts/learnings/bytesArray.sol\":174:175  b */\n      dup1\n        /* \"contracts/learnings/bytesArray.sol\":174:182  b.length */\n      dup1\n      sload\n      tag_24\n      swap1\n      tag_25\n      jump\t// in\n    tag_24:\n      swap1\n      pop\n        /* \"contracts/learnings/bytesArray.sol\":167:182  return b.length */\n      swap1\n      pop\n        /* \"contracts/learnings/bytesArray.sol\":112:189  function length() public view returns (uint) {... */\n      swap1\n      jump\t// out\n        /* \"contracts/learnings/bytesArray.sol\":83:105  bytes public b = \"abc\" */\n    tag_12:\n      0x00\n      dup1\n      sload\n      tag_26\n      swap1\n      tag_25\n      jump\t// in\n    tag_26:\n      dup1\n      0x1f\n      add\n      0x20\n      dup1\n      swap2\n      div\n      mul\n      0x20\n      add\n      mload(0x40)\n      swap1\n      dup2\n      add\n      0x40\n      mstore\n      dup1\n      swap3\n      swap2\n      swap1\n      dup2\n      dup2\n      mstore\n      0x20\n      add\n      dup3\n      dup1\n      sload\n      tag_27\n      swap1\n      tag_25\n      jump\t// in\n    tag_27:\n      dup1\n      iszero\n      tag_28\n      jumpi\n      dup1\n      0x1f\n      lt\n      tag_29\n      jumpi\n      0x0100\n      dup1\n      dup4\n      sload\n      div\n      mul\n      dup4\n      mstore\n      swap2\n      0x20\n      add\n      swap2\n      jump(tag_28)\n    tag_29:\n      dup3\n      add\n      swap2\n      swap1\n      0x00\n      mstore\n      keccak256(0x00, 0x20)\n      swap1\n    tag_30:\n      dup2\n      sload\n      dup2\n      mstore\n      swap1\n      0x01\n      add\n      swap1\n      0x20\n      add\n      dup1\n      dup4\n      gt\n      tag_30\n      jumpi\n      dup3\n      swap1\n      sub\n      0x1f\n      and\n      dup3\n      add\n      swap2\n    tag_28:\n      pop\n      pop\n      pop\n      pop\n      pop\n      dup2\n      jump\t// out\n        /* \"contracts/learnings/bytesArray.sol\":252:330  function set(uint i) public view returns (bytes1) {... */\n    tag_18:\n        /* \"contracts/learnings/bytesArray.sol\":294:300  bytes1 */\n      0x00\n        /* \"contracts/learnings/bytesArray.sol\":319:320  b */\n      dup1\n        /* \"contracts/learnings/bytesArray.sol\":321:322  i */\n      dup3\n        /* \"contracts/learnings/bytesArray.sol\":319:323  b[i] */\n      dup2\n      sload\n      tag_32\n      swap1\n      tag_25\n      jump\t// in\n    tag_32:\n      dup2\n      lt\n      tag_33\n      jumpi\n      tag_34\n      tag_35\n      jump\t// in\n    tag_34:\n    tag_33:\n      dup2\n      sload\n      0x01\n      and\n      iszero\n      tag_36\n      jumpi\n      swap1\n      0x00\n      mstore\n      keccak256(0x00, 0x20)\n      swap1\n      0x20\n      swap2\n      dup3\n      dup3\n      div\n      add\n      swap2\n      swap1\n      mod\n    tag_36:\n      swap1\n      sload\n      swap1\n      byte\n      0x0100000000000000000000000000000000000000000000000000000000000000\n      mul\n        /* \"contracts/learnings/bytesArray.sol\":312:323  return b[i] */\n      swap1\n      pop\n        /* \"contracts/learnings/bytesArray.sol\":252:330  function set(uint i) public view returns (bytes1) {... */\n      swap2\n      swap1\n      pop\n      jump\t// out\n        /* \"contracts/learnings/bytesArray.sol\":195:246  function push() public {... */\n    tag_22:\n        /* \"contracts/learnings/bytesArray.sol\":228:229  b */\n      0x00\n        /* \"contracts/learnings/bytesArray.sol\":228:239  b.push('d') */\n      dup1\n      dup1\n      sload\n      dup1\n      tag_38\n      swap1\n      tag_25\n      jump\t// in\n    tag_38:\n      dup1\n      0x1f\n      dup2\n      sub\n      tag_39\n      jumpi\n      dup4\n      0x00\n      mstore\n      keccak256(0x00, 0x20)\n      not(0xff)\n      dup5\n      and\n      dup2\n      sstore\n      0x3f\n      swap4\n      pop\n      pop\n    tag_39:\n      pop\n      0x02\n      dup3\n      add\n      dup4\n      sstore\n      0x01\n      dup2\n      add\n      swap3\n      pop\n      pop\n      pop\n      0x01\n      swap1\n      sub\n      dup2\n      sload\n      0x01\n      and\n      iszero\n      tag_41\n      jumpi\n      swap1\n      0x00\n      mstore\n      keccak256(0x00, 0x20)\n      swap1\n      0x20\n      swap2\n      dup3\n      dup3\n      div\n      add\n      swap2\n      swap1\n      mod\n    tag_41:\n      0x6400000000000000000000000000000000000000000000000000000000000000\n      swap1\n      swap2\n      swap1\n      swap2\n      0x1f\n      sub\n      0x0100\n      exp\n      dup2\n      sload\n      dup2\n      0xff\n      mul\n      not\n      and\n      swap1\n      0x0100000000000000000000000000000000000000000000000000000000000000\n      dup5\n      div\n      mul\n      or\n      swap1\n      sstore\n      pop\n        /* \"contracts/learnings/bytesArray.sol\":195:246  function push() public {... */\n      jump\t// out\n        /* \"#utility.yul\":7:84   */\n    tag_42:\n        /* \"#utility.yul\":44:51   */\n      0x00\n        /* \"#utility.yul\":73:78   */\n      dup2\n        /* \"#utility.yul\":62:78   */\n      swap1\n      pop\n        /* \"#utility.yul\":7:84   */\n      swap2\n      swap1\n      pop\n      jump\t// out\n        /* \"#utility.yul\":90:208   */\n    tag_43:\n        /* \"#utility.yul\":177:201   */\n      tag_60\n        /* \"#utility.yul\":195:200   */\n      dup2\n        /* \"#utility.yul\":177:201   */\n      tag_42\n      jump\t// in\n    tag_60:\n        /* \"#utility.yul\":172:175   */\n      dup3\n        /* \"#utility.yul\":165:202   */\n      mstore\n        /* \"#utility.yul\":90:208   */\n      pop\n      pop\n      jump\t// out\n        /* \"#utility.yul\":214:436   */\n    tag_10:\n        /* \"#utility.yul\":307:311   */\n      0x00\n        /* \"#utility.yul\":345:347   */\n      0x20\n        /* \"#utility.yul\":334:343   */\n      dup3\n        /* \"#utility.yul\":330:348   */\n      add\n        /* \"#utility.yul\":322:348   */\n      swap1\n      pop\n        /* \"#utility.yul\":358:429   */\n      tag_62\n        /* \"#utility.yul\":426:427   */\n      0x00\n        /* \"#utility.yul\":415:424   */\n      dup4\n        /* \"#utility.yul\":411:428   */\n      add\n        /* \"#utility.yul\":402:408   */\n      dup5\n        /* \"#utility.yul\":358:429   */\n      tag_43\n      jump\t// in\n    tag_62:\n        /* \"#utility.yul\":214:436   */\n      swap3\n      swap2\n      pop\n      pop\n      jump\t// out\n        /* \"#utility.yul\":442:540   */\n    tag_44:\n        /* \"#utility.yul\":493:499   */\n      0x00\n        /* \"#utility.yul\":527:532   */\n      dup2\n        /* \"#utility.yul\":521:533   */\n      mload\n        /* \"#utility.yul\":511:533   */\n      swap1\n      pop\n        /* \"#utility.yul\":442:540   */\n      swap2\n      swap1\n      pop\n      jump\t// out\n        /* \"#utility.yul\":546:714   */\n    tag_45:\n        /* \"#utility.yul\":629:640   */\n      0x00\n        /* \"#utility.yul\":663:669   */\n      dup3\n        /* \"#utility.yul\":658:661   */\n      dup3\n        /* \"#utility.yul\":651:670   */\n      mstore\n        /* \"#utility.yul\":703:707   */\n      0x20\n        /* \"#utility.yul\":698:701   */\n      dup3\n        /* \"#utility.yul\":694:708   */\n      add\n        /* \"#utility.yul\":679:708   */\n      swap1\n      pop\n        /* \"#utility.yul\":546:714   */\n      swap3\n      swap2\n      pop\n      pop\n      jump\t// out\n        /* \"#utility.yul\":720:859   */\n    tag_46:\n        /* \"#utility.yul\":809:815   */\n      dup3\n        /* \"#utility.yul\":804:807   */\n      dup2\n        /* \"#utility.yul\":799:802   */\n      dup4\n        /* \"#utility.yul\":793:816   */\n      mcopy\n        /* \"#utility.yul\":850:851   */\n      0x00\n        /* \"#utility.yul\":841:847   */\n      dup4\n        /* \"#utility.yul\":836:839   */\n      dup4\n        /* \"#utility.yul\":832:848   */\n      add\n        /* \"#utility.yul\":825:852   */\n      mstore\n        /* \"#utility.yul\":720:859   */\n      pop\n      pop\n      pop\n      jump\t// out\n        /* \"#utility.yul\":865:967   */\n    tag_47:\n        /* \"#utility.yul\":906:912   */\n      0x00\n        /* \"#utility.yul\":957:959   */\n      0x1f\n        /* \"#utility.yul\":953:960   */\n      not\n        /* \"#utility.yul\":948:950   */\n      0x1f\n        /* \"#utility.yul\":941:946   */\n      dup4\n        /* \"#utility.yul\":937:951   */\n      add\n        /* \"#utility.yul\":933:961   */\n      and\n        /* \"#utility.yul\":923:961   */\n      swap1\n      pop\n        /* \"#utility.yul\":865:967   */\n      swap2\n      swap1\n      pop\n      jump\t// out\n        /* \"#utility.yul\":973:1346   */\n    tag_48:\n        /* \"#utility.yul\":1059:1062   */\n      0x00\n        /* \"#utility.yul\":1087:1125   */\n      tag_68\n        /* \"#utility.yul\":1119:1124   */\n      dup3\n        /* \"#utility.yul\":1087:1125   */\n      tag_44\n      jump\t// in\n    tag_68:\n        /* \"#utility.yul\":1141:1211   */\n      tag_69\n        /* \"#utility.yul\":1204:1210   */\n      dup2\n        /* \"#utility.yul\":1199:1202   */\n      dup6\n        /* \"#utility.yul\":1141:1211   */\n      tag_45\n      jump\t// in\n    tag_69:\n        /* \"#utility.yul\":1134:1211   */\n      swap4\n      pop\n        /* \"#utility.yul\":1220:1285   */\n      tag_70\n        /* \"#utility.yul\":1278:1284   */\n      dup2\n        /* \"#utility.yul\":1273:1276   */\n      dup6\n        /* \"#utility.yul\":1266:1270   */\n      0x20\n        /* \"#utility.yul\":1259:1264   */\n      dup7\n        /* \"#utility.yul\":1255:1271   */\n      add\n        /* \"#utility.yul\":1220:1285   */\n      tag_46\n      jump\t// in\n    tag_70:\n        /* \"#utility.yul\":1310:1339   */\n      tag_71\n        /* \"#utility.yul\":1332:1338   */\n      dup2\n        /* \"#utility.yul\":1310:1339   */\n      tag_47\n      jump\t// in\n    tag_71:\n        /* \"#utility.yul\":1305:1308   */\n      dup5\n        /* \"#utility.yul\":1301:1340   */\n      add\n        /* \"#utility.yul\":1294:1340   */\n      swap2\n      pop\n        /* \"#utility.yul\":1063:1346   */\n      pop\n        /* \"#utility.yul\":973:1346   */\n      swap3\n      swap2\n      pop\n      pop\n      jump\t// out\n        /* \"#utility.yul\":1352:1661   */\n    tag_14:\n        /* \"#utility.yul\":1463:1467   */\n      0x00\n        /* \"#utility.yul\":1501:1503   */\n      0x20\n        /* \"#utility.yul\":1490:1499   */\n      dup3\n        /* \"#utility.yul\":1486:1504   */\n      add\n        /* \"#utility.yul\":1478:1504   */\n      swap1\n      pop\n        /* \"#utility.yul\":1550:1559   */\n      dup2\n        /* \"#utility.yul\":1544:1548   */\n      dup2\n        /* \"#utility.yul\":1540:1560   */\n      sub\n        /* \"#utility.yul\":1536:1537   */\n      0x00\n        /* \"#utility.yul\":1525:1534   */\n      dup4\n        /* \"#utility.yul\":1521:1538   */\n      add\n        /* \"#utility.yul\":1514:1561   */\n      mstore\n        /* \"#utility.yul\":1578:1654   */\n      tag_73\n        /* \"#utility.yul\":1649:1653   */\n      dup2\n        /* \"#utility.yul\":1640:1646   */\n      dup5\n        /* \"#utility.yul\":1578:1654   */\n      tag_48\n      jump\t// in\n    tag_73:\n        /* \"#utility.yul\":1570:1654   */\n      swap1\n      pop\n        /* \"#utility.yul\":1352:1661   */\n      swap3\n      swap2\n      pop\n      pop\n      jump\t// out\n        /* \"#utility.yul\":1748:1865   */\n    tag_50:\n        /* \"#utility.yul\":1857:1858   */\n      0x00\n        /* \"#utility.yul\":1854:1855   */\n      dup1\n        /* \"#utility.yul\":1847:1859   */\n      revert\n        /* \"#utility.yul\":1994:2116   */\n    tag_52:\n        /* \"#utility.yul\":2067:2091   */\n      tag_78\n        /* \"#utility.yul\":2085:2090   */\n      dup2\n        /* \"#utility.yul\":2067:2091   */\n      tag_42\n      jump\t// in\n    tag_78:\n        /* \"#utility.yul\":2060:2065   */\n      dup2\n        /* \"#utility.yul\":2057:2092   */\n      eq\n        /* \"#utility.yul\":2047:2110   */\n      tag_79\n      jumpi\n        /* \"#utility.yul\":2106:2107   */\n      0x00\n        /* \"#utility.yul\":2103:2104   */\n      dup1\n        /* \"#utility.yul\":2096:2108   */\n      revert\n        /* \"#utility.yul\":2047:2110   */\n    tag_79:\n        /* \"#utility.yul\":1994:2116   */\n      pop\n      jump\t// out\n        /* \"#utility.yul\":2122:2261   */\n    tag_53:\n        /* \"#utility.yul\":2168:2173   */\n      0x00\n        /* \"#utility.yul\":2206:2212   */\n      dup2\n        /* \"#utility.yul\":2193:2213   */\n      calldataload\n        /* \"#utility.yul\":2184:2213   */\n      swap1\n      pop\n        /* \"#utility.yul\":2222:2255   */\n      tag_81\n        /* \"#utility.yul\":2249:2254   */\n      dup2\n        /* \"#utility.yul\":2222:2255   */\n      tag_52\n      jump\t// in\n    tag_81:\n        /* \"#utility.yul\":2122:2261   */\n      swap3\n      swap2\n      pop\n      pop\n      jump\t// out\n        /* \"#utility.yul\":2267:2596   */\n    tag_17:\n        /* \"#utility.yul\":2326:2332   */\n      0x00\n        /* \"#utility.yul\":2375:2377   */\n      0x20\n        /* \"#utility.yul\":2363:2372   */\n      dup3\n        /* \"#utility.yul\":2354:2361   */\n      dup5\n        /* \"#utility.yul\":2350:2373   */\n      sub\n        /* \"#utility.yul\":2346:2378   */\n      slt\n        /* \"#utility.yul\":2343:2462   */\n      iszero\n      tag_83\n      jumpi\n        /* \"#utility.yul\":2381:2460   */\n      tag_84\n      tag_50\n      jump\t// in\n    tag_84:\n        /* \"#utility.yul\":2343:2462   */\n    tag_83:\n        /* \"#utility.yul\":2501:2502   */\n      0x00\n        /* \"#utility.yul\":2526:2579   */\n      tag_85\n        /* \"#utility.yul\":2571:2578   */\n      dup5\n        /* \"#utility.yul\":2562:2568   */\n      dup3\n        /* \"#utility.yul\":2551:2560   */\n      dup6\n        /* \"#utility.yul\":2547:2569   */\n      add\n        /* \"#utility.yul\":2526:2579   */\n      tag_53\n      jump\t// in\n    tag_85:\n        /* \"#utility.yul\":2516:2579   */\n      swap2\n      pop\n        /* \"#utility.yul\":2472:2589   */\n      pop\n        /* \"#utility.yul\":2267:2596   */\n      swap3\n      swap2\n      pop\n      pop\n      jump\t// out\n        /* \"#utility.yul\":2602:2751   */\n    tag_54:\n        /* \"#utility.yul\":2638:2645   */\n      0x00\n        /* \"#utility.yul\":2678:2744   */\n      0xff00000000000000000000000000000000000000000000000000000000000000\n        /* \"#utility.yul\":2671:2676   */\n      dup3\n        /* \"#utility.yul\":2667:2745   */\n      and\n        /* \"#utility.yul\":2656:2745   */\n      swap1\n      pop\n        /* \"#utility.yul\":2602:2751   */\n      swap2\n      swap1\n      pop\n      jump\t// out\n        /* \"#utility.yul\":2757:2872   */\n    tag_55:\n        /* \"#utility.yul\":2842:2865   */\n      tag_88\n        /* \"#utility.yul\":2859:2864   */\n      dup2\n        /* \"#utility.yul\":2842:2865   */\n      tag_54\n      jump\t// in\n    tag_88:\n        /* \"#utility.yul\":2837:2840   */\n      dup3\n        /* \"#utility.yul\":2830:2866   */\n      mstore\n        /* \"#utility.yul\":2757:2872   */\n      pop\n      pop\n      jump\t// out\n        /* \"#utility.yul\":2878:3096   */\n    tag_20:\n        /* \"#utility.yul\":2969:2973   */\n      0x00\n        /* \"#utility.yul\":3007:3009   */\n      0x20\n        /* \"#utility.yul\":2996:3005   */\n      dup3\n        /* \"#utility.yul\":2992:3010   */\n      add\n        /* \"#utility.yul\":2984:3010   */\n      swap1\n      pop\n        /* \"#utility.yul\":3020:3089   */\n      tag_90\n        /* \"#utility.yul\":3086:3087   */\n      0x00\n        /* \"#utility.yul\":3075:3084   */\n      dup4\n        /* \"#utility.yul\":3071:3088   */\n      add\n        /* \"#utility.yul\":3062:3068   */\n      dup5\n        /* \"#utility.yul\":3020:3089   */\n      tag_55\n      jump\t// in\n    tag_90:\n        /* \"#utility.yul\":2878:3096   */\n      swap3\n      swap2\n      pop\n      pop\n      jump\t// out\n        /* \"#utility.yul\":3102:3282   */\n    tag_56:\n        /* \"#utility.yul\":3150:3227   */\n      0x4e487b7100000000000000000000000000000000000000000000000000000000\n        /* \"#utility.yul\":3147:3148   */\n      0x00\n        /* \"#utility.yul\":3140:3228   */\n      mstore\n        /* \"#utility.yul\":3247:3251   */\n      0x22\n        /* \"#utility.yul\":3244:3245   */\n      0x04\n        /* \"#utility.yul\":3237:3252   */\n      mstore\n        /* \"#utility.yul\":3271:3275   */\n      0x24\n        /* \"#utility.yul\":3268:3269   */\n      0x00\n        /* \"#utility.yul\":3261:3276   */\n      revert\n        /* \"#utility.yul\":3288:3608   */\n    tag_25:\n        /* \"#utility.yul\":3332:3338   */\n      0x00\n        /* \"#utility.yul\":3369:3370   */\n      0x02\n        /* \"#utility.yul\":3363:3367   */\n      dup3\n        /* \"#utility.yul\":3359:3371   */\n      div\n        /* \"#utility.yul\":3349:3371   */\n      swap1\n      pop\n        /* \"#utility.yul\":3416:3417   */\n      0x01\n        /* \"#utility.yul\":3410:3414   */\n      dup3\n        /* \"#utility.yul\":3406:3418   */\n      and\n        /* \"#utility.yul\":3437:3455   */\n      dup1\n        /* \"#utility.yul\":3427:3508   */\n      tag_93\n      jumpi\n        /* \"#utility.yul\":3493:3497   */\n      0x7f\n        /* \"#utility.yul\":3485:3491   */\n      dup3\n        /* \"#utility.yul\":3481:3498   */\n      and\n        /* \"#utility.yul\":3471:3498   */\n      swap2\n      pop\n        /* \"#utility.yul\":3427:3508   */\n    tag_93:\n        /* \"#utility.yul\":3555:3557   */\n      0x20\n        /* \"#utility.yul\":3547:3553   */\n      dup3\n        /* \"#utility.yul\":3544:3558   */\n      lt\n        /* \"#utility.yul\":3524:3542   */\n      dup2\n        /* \"#utility.yul\":3521:3559   */\n      sub\n        /* \"#utility.yul\":3518:3602   */\n      tag_94\n      jumpi\n        /* \"#utility.yul\":3574:3592   */\n      tag_95\n      tag_56\n      jump\t// in\n    tag_95:\n        /* \"#utility.yul\":3518:3602   */\n    tag_94:\n        /* \"#utility.yul\":3339:3608   */\n      pop\n        /* \"#utility.yul\":3288:3608   */\n      swap2\n      swap1\n      pop\n      jump\t// out\n        /* \"#utility.yul\":3614:3794   */\n    tag_35:\n        /* \"#utility.yul\":3662:3739   */\n      0x4e487b7100000000000000000000000000000000000000000000000000000000\n        /* \"#utility.yul\":3659:3660   */\n      0x00\n        /* \"#utility.yul\":3652:3740   */\n      mstore\n        /* \"#utility.yul\":3759:3763   */\n      0x32\n        /* \"#utility.yul\":3756:3757   */\n      0x04\n        /* \"#utility.yul\":3749:3764   */\n      mstore\n        /* \"#utility.yul\":3783:3787   */\n      0x24\n        /* \"#utility.yul\":3780:3781   */\n      0x00\n        /* \"#utility.yul\":3773:3788   */\n      revert\n\n    auxdata: 0xa2646970667358221220ee3c4e81e4b662c04ad2f01370a01b21a3783ff4c05f40f4e6e7839b57e3808064736f6c634300081a0033\n}\n",
				"bytecode": {
					"linkReferences": {},
					"object": "60806040526040518060400160405280600381526020017f61626300000000000000000000000000000000000000000000000000000000008152505f90816100479190610293565b50348015610053575f80fd5b50610362565b5f81519050919050565b7f4e487b71000000000000000000000000000000000000000000000000000000005f52604160045260245ffd5b7f4e487b71000000000000000000000000000000000000000000000000000000005f52602260045260245ffd5b5f60028204905060018216806100d457607f821691505b6020821081036100e7576100e6610090565b5b50919050565b5f819050815f5260205f209050919050565b5f6020601f8301049050919050565b5f82821b905092915050565b5f600883026101497fffffffffffffffffffffffffffffffffffffffffffffffffffffffffffffffff8261010e565b610153868361010e565b95508019841693508086168417925050509392505050565b5f819050919050565b5f819050919050565b5f61019761019261018d8461016b565b610174565b61016b565b9050919050565b5f819050919050565b6101b08361017d565b6101c46101bc8261019e565b84845461011a565b825550505050565b5f90565b6101d86101cc565b6101e38184846101a7565b505050565b5b81811015610206576101fb5f826101d0565b6001810190506101e9565b5050565b601f82111561024b5761021c816100ed565b610225846100ff565b81016020851015610234578190505b610248610240856100ff565b8301826101e8565b50505b505050565b5f82821c905092915050565b5f61026b5f1984600802610250565b1980831691505092915050565b5f610283838361025c565b9150826002028217905092915050565b61029c82610059565b67ffffffffffffffff8111156102b5576102b4610063565b5b6102bf82546100bd565b6102ca82828561020a565b5f60209050601f8311600181146102fb575f84156102e9578287015190505b6102f38582610278565b86555061035a565b601f198416610309866100ed565b5f5b828110156103305784890151825560018201915060208501945060208101905061030b565b8683101561034d5784890151610349601f89168261025c565b8355505b6001600288020188555050505b505050505050565b6104b18061036f5f395ff3fe608060405234801561000f575f80fd5b506004361061004a575f3560e01c80631f7b6d321461004e5780634df7e3d01461006c57806360fe47b11461008a5780638035f0ce146100ba575b5f80fd5b6100566100c4565b604051610063919061029c565b60405180910390f35b6100746100d8565b6040516100819190610325565b60405180910390f35b6100a4600480360381019061009f9190610373565b610163565b6040516100b191906103d8565b60405180910390f35b6100c26101ca565b005b5f8080546100d19061041e565b9050905090565b5f80546100e49061041e565b80601f01602080910402602001604051908101604052809291908181526020018280546101109061041e565b801561015b5780601f106101325761010080835404028352916020019161015b565b820191905f5260205f20905b81548152906001019060200180831161013e57829003601f168201915b505050505081565b5f808281546101719061041e565b81106101805761017f61044e565b5b81546001161561019d57905f5260205f2090602091828204019190065b9054901a7f0100000000000000000000000000000000000000000000000000000000000000029050919050565b5f808054806101d89061041e565b80601f81036101f557835f5260205f2060ff1984168155603f9350505b5060028201835560018101925050506001900381546001161561022557905f5260205f2090602091828204019190065b7f640000000000000000000000000000000000000000000000000000000000000090919091601f036101000a81548160ff021916907f010000000000000000000000000000000000000000000000000000000000000084040217905550565b5f819050919050565b61029681610284565b82525050565b5f6020820190506102af5f83018461028d565b92915050565b5f81519050919050565b5f82825260208201905092915050565b8281835e5f83830152505050565b5f601f19601f8301169050919050565b5f6102f7826102b5565b61030181856102bf565b93506103118185602086016102cf565b61031a816102dd565b840191505092915050565b5f6020820190508181035f83015261033d81846102ed565b905092915050565b5f80fd5b61035281610284565b811461035c575f80fd5b50565b5f8135905061036d81610349565b92915050565b5f6020828403121561038857610387610345565b5b5f6103958482850161035f565b91505092915050565b5f7fff0000000000000000000000000000000000000000000000000000000000000082169050919050565b6103d28161039e565b82525050565b5f6020820190506103eb5f8301846103c9565b92915050565b7f4e487b71000000000000000000000000000000000000000000000000000000005f52602260045260245ffd5b5f600282049050600182168061043557607f821691505b602082108103610448576104476103f1565b5b50919050565b7f4e487b71000000000000000000000000000000000000000000000000000000005f52603260045260245ffdfea2646970667358221220ee3c4e81e4b662c04ad2f01370a01b21a3783ff4c05f40f4e6e7839b57e3808064736f6c634300081a0033",
					"opcodes": "PUSH1 0x80 PUSH1 0x40 MSTORE PUSH1 0x40 MLOAD DUP1 PUSH1 0x40 ADD PUSH1 0x40 MSTORE DUP1 PUSH1 0x3 DUP2 MSTORE PUSH1 0x20 ADD PUSH32 0x6162630000000000000000000000000000000000000000000000000000000000 DUP2 MSTORE POP PUSH0 SWAP1 DUP2 PUSH2 0x47 SWAP2 SWAP1 PUSH2 0x293 JUMP JUMPDEST POP CALLVALUE DUP1 ISZERO PUSH2 0x53 JUMPI PUSH0 DUP1 REVERT JUMPDEST POP PUSH2 0x362 JUMP JUMPDEST PUSH0 DUP2 MLOAD SWAP1 POP SWAP2 SWAP1 POP JUMP JUMPDEST PUSH32 0x4E487B7100000000000000000000000000000000000000000000000000000000 PUSH0 MSTORE PUSH1 0x41 PUSH1 0x4 MSTORE PUSH1 0x24 PUSH0 REVERT JUMPDEST PUSH32 0x4E487B7100000000000000000000000000000000000000000000000000000000 PUSH0 MSTORE PUSH1 0x22 PUSH1 0x4 MSTORE PUSH1 0x24 PUSH0 REVERT JUMPDEST PUSH0 PUSH1 0x2 DUP3 DIV SWAP1 POP PUSH1 0x1 DUP3 AND DUP1 PUSH2 0xD4 JUMPI PUSH1 0x7F DUP3 AND SWAP2 POP JUMPDEST PUSH1 0x20 DUP3 LT DUP2 SUB PUSH2 0xE7 JUMPI PUSH2 0xE6 PUSH2 0x90 JUMP JUMPDEST JUMPDEST POP SWAP2 SWAP1 POP JUMP JUMPDEST PUSH0 DUP2 SWAP1 POP DUP2 PUSH0 MSTORE PUSH1 0x20 PUSH0 KECCAK256 SWAP1 POP SWAP2 SWAP1 POP JUMP JUMPDEST PUSH0 PUSH1 0x20 PUSH1 0x1F DUP4 ADD DIV SWAP1 POP SWAP2 SWAP1 POP JUMP JUMPDEST PUSH0 DUP3 DUP3 SHL SWAP1 POP SWAP3 SWAP2 POP POP JUMP JUMPDEST PUSH0 PUSH1 0x8 DUP4 MUL PUSH2 0x149 PUSH32 0xFFFFFFFFFFFFFFFFFFFFFFFFFFFFFFFFFFFFFFFFFFFFFFFFFFFFFFFFFFFFFFFF DUP3 PUSH2 0x10E JUMP JUMPDEST PUSH2 0x153 DUP7 DUP4 PUSH2 0x10E JUMP JUMPDEST SWAP6 POP DUP1 NOT DUP5 AND SWAP4 POP DUP1 DUP7 AND DUP5 OR SWAP3 POP POP POP SWAP4 SWAP3 POP POP POP JUMP JUMPDEST PUSH0 DUP2 SWAP1 POP SWAP2 SWAP1 POP JUMP JUMPDEST PUSH0 DUP2 SWAP1 POP SWAP2 SWAP1 POP JUMP JUMPDEST PUSH0 PUSH2 0x197 PUSH2 0x192 PUSH2 0x18D DUP5 PUSH2 0x16B JUMP JUMPDEST PUSH2 0x174 JUMP JUMPDEST PUSH2 0x16B JUMP JUMPDEST SWAP1 POP SWAP2 SWAP1 POP JUMP JUMPDEST PUSH0 DUP2 SWAP1 POP SWAP2 SWAP1 POP JUMP JUMPDEST PUSH2 0x1B0 DUP4 PUSH2 0x17D JUMP JUMPDEST PUSH2 0x1C4 PUSH2 0x1BC DUP3 PUSH2 0x19E JUMP JUMPDEST DUP5 DUP5 SLOAD PUSH2 0x11A JUMP JUMPDEST DUP3 SSTORE POP POP POP POP JUMP JUMPDEST PUSH0 SWAP1 JUMP JUMPDEST PUSH2 0x1D8 PUSH2 0x1CC JUMP JUMPDEST PUSH2 0x1E3 DUP2 DUP5 DUP5 PUSH2 0x1A7 JUMP JUMPDEST POP POP POP JUMP JUMPDEST JUMPDEST DUP2 DUP2 LT ISZERO PUSH2 0x206 JUMPI PUSH2 0x1FB PUSH0 DUP3 PUSH2 0x1D0 JUMP JUMPDEST PUSH1 0x1 DUP2 ADD SWAP1 POP PUSH2 0x1E9 JUMP JUMPDEST POP POP JUMP JUMPDEST PUSH1 0x1F DUP3 GT ISZERO PUSH2 0x24B JUMPI PUSH2 0x21C DUP2 PUSH2 0xED JUMP JUMPDEST PUSH2 0x225 DUP5 PUSH2 0xFF JUMP JUMPDEST DUP2 ADD PUSH1 0x20 DUP6 LT ISZERO PUSH2 0x234 JUMPI DUP2 SWAP1 POP JUMPDEST PUSH2 0x248 PUSH2 0x240 DUP6 PUSH2 0xFF JUMP JUMPDEST DUP4 ADD DUP3 PUSH2 0x1E8 JUMP JUMPDEST POP POP JUMPDEST POP POP POP JUMP JUMPDEST PUSH0 DUP3 DUP3 SHR SWAP1 POP SWAP3 SWAP2 POP POP JUMP JUMPDEST PUSH0 PUSH2 0x26B PUSH0 NOT DUP5 PUSH1 0x8 MUL PUSH2 0x250 JUMP JUMPDEST NOT DUP1 DUP4 AND SWAP2 POP POP SWAP3 SWAP2 POP POP JUMP JUMPDEST PUSH0 PUSH2 0x283 DUP4 DUP4 PUSH2 0x25C JUMP JUMPDEST SWAP2 POP DUP3 PUSH1 0x2 MUL DUP3 OR SWAP1 POP SWAP3 SWAP2 POP POP JUMP JUMPDEST PUSH2 0x29C DUP3 PUSH2 0x59 JUMP JUMPDEST PUSH8 0xFFFFFFFFFFFFFFFF DUP2 GT ISZERO PUSH2 0x2B5 JUMPI PUSH2 0x2B4 PUSH2 0x63 JUMP JUMPDEST JUMPDEST PUSH2 0x2BF DUP3 SLOAD PUSH2 0xBD JUMP JUMPDEST PUSH2 0x2CA DUP3 DUP3 DUP6 PUSH2 0x20A JUMP JUMPDEST PUSH0 PUSH1 0x20 SWAP1 POP PUSH1 0x1F DUP4 GT PUSH1 0x1 DUP2 EQ PUSH2 0x2FB JUMPI PUSH0 DUP5 ISZERO PUSH2 0x2E9 JUMPI DUP3 DUP8 ADD MLOAD SWAP1 POP JUMPDEST PUSH2 0x2F3 DUP6 DUP3 PUSH2 0x278 JUMP JUMPDEST DUP7 SSTORE POP PUSH2 0x35A JUMP JUMPDEST PUSH1 0x1F NOT DUP5 AND PUSH2 0x309 DUP7 PUSH2 0xED JUMP JUMPDEST PUSH0 JUMPDEST DUP3 DUP2 LT ISZERO PUSH2 0x330 JUMPI DUP5 DUP10 ADD MLOAD DUP3 SSTORE PUSH1 0x1 DUP3 ADD SWAP2 POP PUSH1 0x20 DUP6 ADD SWAP5 POP PUSH1 0x20 DUP2 ADD SWAP1 POP PUSH2 0x30B JUMP JUMPDEST DUP7 DUP4 LT ISZERO PUSH2 0x34D JUMPI DUP5 DUP10 ADD MLOAD PUSH2 0x349 PUSH1 0x1F DUP10 AND DUP3 PUSH2 0x25C JUMP JUMPDEST DUP4 SSTORE POP JUMPDEST PUSH1 0x1 PUSH1 0x2 DUP9 MUL ADD DUP9 SSTORE POP POP POP JUMPDEST POP POP POP POP POP POP JUMP JUMPDEST PUSH2 0x4B1 DUP1 PUSH2 0x36F PUSH0 CODECOPY PUSH0 RETURN INVALID PUSH1 0x80 PUSH1 0x40 MSTORE CALLVALUE DUP1 ISZERO PUSH2 0xF JUMPI PUSH0 DUP1 REVERT JUMPDEST POP PUSH1 0x4 CALLDATASIZE LT PUSH2 0x4A JUMPI PUSH0 CALLDATALOAD PUSH1 0xE0 SHR DUP1 PUSH4 0x1F7B6D32 EQ PUSH2 0x4E JUMPI DUP1 PUSH4 0x4DF7E3D0 EQ PUSH2 0x6C JUMPI DUP1 PUSH4 0x60FE47B1 EQ PUSH2 0x8A JUMPI DUP1 PUSH4 0x8035F0CE EQ PUSH2 0xBA JUMPI JUMPDEST PUSH0 DUP1 REVERT JUMPDEST PUSH2 0x56 PUSH2 0xC4 JUMP JUMPDEST PUSH1 0x40 MLOAD PUSH2 0x63 SWAP2 SWAP1 PUSH2 0x29C JUMP JUMPDEST PUSH1 0x40 MLOAD DUP1 SWAP2 SUB SWAP1 RETURN JUMPDEST PUSH2 0x74 PUSH2 0xD8 JUMP JUMPDEST PUSH1 0x40 MLOAD PUSH2 0x81 SWAP2 SWAP1 PUSH2 0x325 JUMP JUMPDEST PUSH1 0x40 MLOAD DUP1 SWAP2 SUB SWAP1 RETURN JUMPDEST PUSH2 0xA4 PUSH1 0x4 DUP1 CALLDATASIZE SUB DUP2 ADD SWAP1 PUSH2 0x9F SWAP2 SWAP1 PUSH2 0x373 JUMP JUMPDEST PUSH2 0x163 JUMP JUMPDEST PUSH1 0x40 MLOAD PUSH2 0xB1 SWAP2 SWAP1 PUSH2 0x3D8 JUMP JUMPDEST PUSH1 0x40 MLOAD DUP1 SWAP2 SUB SWAP1 RETURN JUMPDEST PUSH2 0xC2 PUSH2 0x1CA JUMP JUMPDEST STOP JUMPDEST PUSH0 DUP1 DUP1 SLOAD PUSH2 0xD1 SWAP1 PUSH2 0x41E JUMP JUMPDEST SWAP1 POP SWAP1 POP SWAP1 JUMP JUMPDEST PUSH0 DUP1 SLOAD PUSH2 0xE4 SWAP1 PUSH2 0x41E JUMP JUMPDEST DUP1 PUSH1 0x1F ADD PUSH1 0x20 DUP1 SWAP2 DIV MUL PUSH1 0x20 ADD PUSH1 0x40 MLOAD SWAP1 DUP2 ADD PUSH1 0x40 MSTORE DUP1 SWAP3 SWAP2 SWAP1 DUP2 DUP2 MSTORE PUSH1 0x20 ADD DUP3 DUP1 SLOAD PUSH2 0x110 SWAP1 PUSH2 0x41E JUMP JUMPDEST DUP1 ISZERO PUSH2 0x15B JUMPI DUP1 PUSH1 0x1F LT PUSH2 0x132 JUMPI PUSH2 0x100 DUP1 DUP4 SLOAD DIV MUL DUP4 MSTORE SWAP2 PUSH1 0x20 ADD SWAP2 PUSH2 0x15B JUMP JUMPDEST DUP3 ADD SWAP2 SWAP1 PUSH0 MSTORE PUSH1 0x20 PUSH0 KECCAK256 SWAP1 JUMPDEST DUP2 SLOAD DUP2 MSTORE SWAP1 PUSH1 0x1 ADD SWAP1 PUSH1 0x20 ADD DUP1 DUP4 GT PUSH2 0x13E JUMPI DUP3 SWAP1 SUB PUSH1 0x1F AND DUP3 ADD SWAP2 JUMPDEST POP POP POP POP POP DUP2 JUMP JUMPDEST PUSH0 DUP1 DUP3 DUP2 SLOAD PUSH2 0x171 SWAP1 PUSH2 0x41E JUMP JUMPDEST DUP2 LT PUSH2 0x180 JUMPI PUSH2 0x17F PUSH2 0x44E JUMP JUMPDEST JUMPDEST DUP2 SLOAD PUSH1 0x1 AND ISZERO PUSH2 0x19D JUMPI SWAP1 PUSH0 MSTORE PUSH1 0x20 PUSH0 KECCAK256 SWAP1 PUSH1 0x20 SWAP2 DUP3 DUP3 DIV ADD SWAP2 SWAP1 MOD JUMPDEST SWAP1 SLOAD SWAP1 BYTE PUSH32 0x100000000000000000000000000000000000000000000000000000000000000 MUL SWAP1 POP SWAP2 SWAP1 POP JUMP JUMPDEST PUSH0 DUP1 DUP1 SLOAD DUP1 PUSH2 0x1D8 SWAP1 PUSH2 0x41E JUMP JUMPDEST DUP1 PUSH1 0x1F DUP2 SUB PUSH2 0x1F5 JUMPI DUP4 PUSH0 MSTORE PUSH1 0x20 PUSH0 KECCAK256 PUSH1 0xFF NOT DUP5 AND DUP2 SSTORE PUSH1 0x3F SWAP4 POP POP JUMPDEST POP PUSH1 0x2 DUP3 ADD DUP4 SSTORE PUSH1 0x1 DUP2 ADD SWAP3 POP POP POP PUSH1 0x1 SWAP1 SUB DUP2 SLOAD PUSH1 0x1 AND ISZERO PUSH2 0x225 JUMPI SWAP1 PUSH0 MSTORE PUSH1 0x20 PUSH0 KECCAK256 SWAP1 PUSH1 0x20 SWAP2 DUP3 DUP3 DIV ADD SWAP2 SWAP1 MOD JUMPDEST PUSH32 0x6400000000000000000000000000000000000000000000000000000000000000 SWAP1 SWAP2 SWAP1 SWAP2 PUSH1 0x1F SUB PUSH2 0x100 EXP DUP2 SLOAD DUP2 PUSH1 0xFF MUL NOT AND SWAP1 PUSH32 0x100000000000000000000000000000000000000000000000000000000000000 DUP5 DIV MUL OR SWAP1 SSTORE POP JUMP JUMPDEST PUSH0 DUP2 SWAP1 POP SWAP2 SWAP1 POP JUMP JUMPDEST PUSH2 0x296 DUP2 PUSH2 0x284 JUMP JUMPDEST DUP3 MSTORE POP POP JUMP JUMPDEST PUSH0 PUSH1 0x20 DUP3 ADD SWAP1 POP PUSH2 0x2AF PUSH0 DUP4 ADD DUP5 PUSH2 0x28D JUMP JUMPDEST SWAP3 SWAP2 POP POP JUMP JUMPDEST PUSH0 DUP2 MLOAD SWAP1 POP SWAP2 SWAP1 POP JUMP JUMPDEST PUSH0 DUP3 DUP3 MSTORE PUSH1 0x20 DUP3 ADD SWAP1 POP SWAP3 SWAP2 POP POP JUMP JUMPDEST DUP3 DUP2 DUP4 MCOPY PUSH0 DUP4 DUP4 ADD MSTORE POP POP POP JUMP JUMPDEST PUSH0 PUSH1 0x1F NOT PUSH1 0x1F DUP4 ADD AND SWAP1 POP SWAP2 SWAP1 POP JUMP JUMPDEST PUSH0 PUSH2 0x2F7 DUP3 PUSH2 0x2B5 JUMP JUMPDEST PUSH2 0x301 DUP2 DUP6 PUSH2 0x2BF JUMP JUMPDEST SWAP4 POP PUSH2 0x311 DUP2 DUP6 PUSH1 0x20 DUP7 ADD PUSH2 0x2CF JUMP JUMPDEST PUSH2 0x31A DUP2 PUSH2 0x2DD JUMP JUMPDEST DUP5 ADD SWAP2 POP POP SWAP3 SWAP2 POP POP JUMP JUMPDEST PUSH0 PUSH1 0x20 DUP3 ADD SWAP1 POP DUP2 DUP2 SUB PUSH0 DUP4 ADD MSTORE PUSH2 0x33D DUP2 DUP5 PUSH2 0x2ED JUMP JUMPDEST SWAP1 POP SWAP3 SWAP2 POP POP JUMP JUMPDEST PUSH0 DUP1 REVERT JUMPDEST PUSH2 0x352 DUP2 PUSH2 0x284 JUMP JUMPDEST DUP2 EQ PUSH2 0x35C JUMPI PUSH0 DUP1 REVERT JUMPDEST POP JUMP JUMPDEST PUSH0 DUP2 CALLDATALOAD SWAP1 POP PUSH2 0x36D DUP2 PUSH2 0x349 JUMP JUMPDEST SWAP3 SWAP2 POP POP JUMP JUMPDEST PUSH0 PUSH1 0x20 DUP3 DUP5 SUB SLT ISZERO PUSH2 0x388 JUMPI PUSH2 0x387 PUSH2 0x345 JUMP JUMPDEST JUMPDEST PUSH0 PUSH2 0x395 DUP5 DUP3 DUP6 ADD PUSH2 0x35F JUMP JUMPDEST SWAP2 POP POP SWAP3 SWAP2 POP POP JUMP JUMPDEST PUSH0 PUSH32 0xFF00000000000000000000000000000000000000000000000000000000000000 DUP3 AND SWAP1 POP SWAP2 SWAP1 POP JUMP JUMPDEST PUSH2 0x3D2 DUP2 PUSH2 0x39E JUMP JUMPDEST DUP3 MSTORE POP POP JUMP JUMPDEST PUSH0 PUSH1 0x20 DUP3 ADD SWAP1 POP PUSH2 0x3EB PUSH0 DUP4 ADD DUP5 PUSH2 0x3C9 JUMP JUMPDEST SWAP3 SWAP2 POP POP JUMP JUMPDEST PUSH32 0x4E487B7100000000000000000000000000000000000000000000000000000000 PUSH0 MSTORE PUSH1 0x22 PUSH1 0x4 MSTORE PUSH1 0x24 PUSH0 REVERT JUMPDEST PUSH0 PUSH1 0x2 DUP3 DIV SWAP1 POP PUSH1 0x1 DUP3 AND DUP1 PUSH2 0x435 JUMPI PUSH1 0x7F DUP3 AND SWAP2 POP JUMPDEST PUSH1 0x20 DUP3 LT DUP2 SUB PUSH2 0x448 JUMPI PUSH2 0x447 PUSH2 0x3F1 JUMP JUMPDEST JUMPDEST POP SWAP2 SWAP1 POP JUMP JUMPDEST PUSH32 0x4E487B7100000000000000000000000000000000000000000000000000000000 PUSH0 MSTORE PUSH1 0x32 PUSH1 0x4 MSTORE PUSH1 0x24 PUSH0 REVERT INVALID LOG2 PUSH5 0x6970667358 0x22 SLT KECCAK256 0xEE EXTCODECOPY 0x4E DUP2 0xE4 0xB6 PUSH3 0xC04AD2 CREATE SGT PUSH17 0xA01B21A3783FF4C05F40F4E6E7839B57E3 DUP1 DUP1 PUSH5 0x736F6C6343 STOP ADDMOD BYTE STOP CALLER "
				},
				"gasEstimates": {
					"creation": {
						"codeDepositCost": "240200",
						"executionCost": "infinite",
						"totalCost": "infinite"
					},
					"external": {
						"b()": "infinite",
						"length()": "2542",
						"push()": "74853",
						"set(uint256)": "7197"
					}
				},
				"methodIdentifiers": {
					"b()": "4df7e3d0",
					"length()": "1f7b6d32",
					"push()": "8035f0ce",
					"set(uint256)": "60fe47b1"
				}
			},
			"storageLayout": {
				"storage": [
					{
						"astId": 4,
						"contract": "contracts/learnings/bytesArray.sol:bytesArray",
						"label": "b",
						"offset": 0,
						"slot": "0",
						"type": "t_bytes_storage"
					}
				],
				"types": {
					"t_bytes_storage": {
						"encoding": "bytes",
						"label": "bytes",
						"numberOfBytes": "32"
					}
				}
			},
			"userdoc": {
				"kind": "user",
				"methods": {},
				"version": 1
			}
		}
	}
}